:100000000C94C6000C9400000C9400000C940000AA
:100010000C9400000C9400000C940D020C941E0231
:100020000C942F020C9400000C94EB010C94000033
:100030000C9400000C9400000C9400000C94000040
:100040000C9400000C9400000C9400000C94000030
:100050000C9400000C9400000C9400000C94000020
:100060000C9400000C9400000C9400000C94000010
:100070000C9400000C9400000C94F4010C9400000B
:100080000C9400000C9400000C9400001027E8036E
:1000900064000A00010000100001100001000A00C5
:1000A00047AA6F3B000000000000000000000000B5
:1000B0000000000000000000000000000000000040
:1000C0000000000000000000000000000000000030
:1000D0000000000000000000000000000000000020
:1000E0000000000000000000000000000000000010
:1000F0000000000000000000000000000000000000
:1001000000000000000000000000000000000000EF
:1001100000000000000000000000000000000000DF
:1001200000000000000000000000000000000000CF
:1001300000000000000000000000000000000000BF
:10014000000000000000476F616C3D25642C2063B7
:10015000757272656E743D25642C204572723D2562
:1001600064200D0A000001002D4E414E00494E460C
:100170000000010000059E0004001405A000080016
:1001800004003E010100180566010000F894EE2706
:10019000ECBBF1E0F5BFE5BFE0936C00F8E1F1BD29
:1001A000E1BD8DE0A2E0BB27ED938A95E9F780E001
:1001B00090E1A0E0B1E0ED930197E9F7E2E7F1E02B
:1001C00085919591009761F0A591B5910590159055
:1001D000BF01F00105900D920197E1F7FB01F0CF0F
:1001E0008BBFEFEFEDBFE0E1EEBFC0E0D5E00C94D8
:1001F0004502BE9ABF9ABC9ABB9AC498C398BA9A51
:10020000BD9AC298C5980895E0E0E0939B00E8E9A4
:10021000E0939A00E6E0E0939D00ADE9B0E0EC9158
:10022000EC93E0E0E0939800E7E0E0939900089514
:10023000E0919B00E072E1F3E881E0939C0021965D
:100240000895A881B981EC91E03031F0ED91A88357
:10025000B983EA93EDDFF5CF22960895E4E5EABF8E
:10026000E0EEE9BF1598169817980895E5E0E5BD0A
:10027000EAE2EFBDE8E1EEBDEEB5E160EEBDE0E043
:10028000F0E0F9BDE8BDE0937900E0937800ECE29E
:10029000F1E0F7BDE6BDE0E4E7BF08951A930A93E5
:1002A000EC81FD81AA81BB81AE17BF071CF00C81D8
:1002B0001D811CC00E94DF0444F0EE81FF81AFEF7E
:1002C000BFEF0E9478068F0111C00E94DF041CF46A
:1002D000AB81AA230AF008C0EA81FB81AFEFBFEF30
:1002E0000E9478068F0102C00A811B81F8011981E2
:1002F0000881289608952C978CE0A0E0B0E0E4EA0D
:10030000F0E00E94B1061A930A9300E010E0AA8977
:10031000BB89EC89FD89EA1BFB0B0E946B060E94DE
:100320008A05EA83FB836C837D83A0E0B0E080EAEA
:1003300090E40E940D06EA87FB876C877D87A88979
:10034000B9890E948F06A0E0B0E080E090E00E94B2
:10035000BD05A889B9890E949506E0E0EE83EF8388
:10036000E887E987A889B9890E948F06AA85BB8595
:100370008C859D850E94BD05AE81BF81888599854C
:100380000E94BD050E9453058F01EA81FB816C81AB
:100390007D81AE85BF850E949506F801198108818F
:1003A00066960895AB81AA231AF4C49AC39A05C02D
:1003B000AB81AA2372F0C498C398E881F981F9BD92
:1003C000E8BDE070EF2FF0E0E0937900E881E09382
:1003D000780024960895EA93EFB7EA93EFEFBE0E04
:1003E000E991EFBFE9911895EA93FA93EFB7EA9391
:1003F00080909C00EAE0E81541F06624E72DF0E0EB
:10040000E050FB4F8082739403C07724E1E06E2EAE
:10041000E991EFBFF991E99118950E94E604A0E0F7
:100420000D99A1E0E0E00E99E1E0EA1719F0F20180
:10043000319702C0F20131962F0121C00E94E604DB
:10044000A0E00E99A1E0E0E00F99E1E0EA1719F0D1
:10045000F201319702C0F20131962F0110C00E94C3
:10046000E604A0E00F99A1E0E0E00D99E1E0EA17D1
:1004700019F0F201319702C0F20131962F01E99192
:10048000EFBFF991E991A9911895EF97EF976097D0
:100490008EE8A0E0B0E0E0EBF0E00E94B10600E002
:1004A00010E020E030E040E050E0AEDEDFDEA1DE34
:1004B000D5DE7894662041F0E0E0F5E0FA93EA9327
:1004C0000E9487049F01662400E010E00431E0E010
:1004D0001E074CF4A0E0B5E0A00FB11FE0E0EC93E4
:1004E0000F5F1F4FF3CFF201A6E0B0E00E94780645
:1004F000AF013A932A935A934A93FE01E657FF4F6E
:10050000FA93EA93FE01E057FF4FFA93EA93F3DE82
:10051000EA83FB83E6E5FFEFFA93EA93EAEAF0E089
:10052000FA93EA930E94EC04B9DEE883F983EA8146
:10053000FB81FA93EA93EA81FB81FA93EA9332DF33
:10054000E4B5BE0EE0E0E4BDEB2DF0E00E946B06EA
:100550000E948A05A8E1B4EB80E998E30E940D06A9
:10056000E0931405F0931505609316057093170535
:10057000FE013496FA93EA93E6E4F1E0FA93EA9303
:10058000F9010E94F104FA010E94F104FE01EA5609
:10059000FF4F0190119061917081F0010E9453050D
:1005A0000E94F1048CE00E9451046096FE01349692
:1005B000FA93EA9346DEBB247DCFFFCF1A930A93CA
:1005C000AA81BB8112960E948B06309759F1AA81AD
:1005D000BB8114960E948B068F01309761F0023028
:1005E000E0E01E07F0F0F80131978F01AA81BB818E
:1005F0001496ED93FC93AA81BB811296ED91FD9127
:100600003196FE93EE933197AC81A083AA81BB8192
:100610000E948B06FF232AF0ED91FD913196FE9307
:10062000EE9306C0AA81BB81EFEFFFEFED93FC9341
:10063000198108812596089526970E94A30610E047
:10064000AC85BD85E0E0F0E0ED93FC93EA89FB89A1
:100650003196EA8BFB8B3197E4912E2FE03011F429
:100660000C944904E12FE03039F4253211F411E003
:1006700002C00E94F6040CC1E130A9F4253219F43D
:100680000E94F60404C112E040E000E02D3211F4B3
:1006900001E0FEC02B3211F44BE2FAC0203211F41B
:1006A00040E2F6C002C0E23039F450E013E02033FB
:1006B00011F40068EDC004C0E33011F00C9448045C
:1006C000203310F02A3308F007C0AAE05A9F502DBB
:1006D000E22FE0535E0FDCC0E22FE33649F40E94C4
:1006E000FF04E889F989A481AA930E940505CFC077
:1006F000E33741F40E94FF040E940D050E94CA04E2
:100700001E2F0AC0E03761F40E94FF040E940D050D
:100710000E94D4041E2F086002600F7730E035C0BD
:10072000E43611F0E93611F4046002C0E53731F423
:10073000ECE8F0E0EE83FF8315E00DC0E83511F43E
:10074000086004C0E83711F00C944704E6E9F0E0D3
:10075000EE83FF8314E002FF14C00E94FF040E9496
:100760001505AB85AA233AF4EA85FB850E945F064E
:10077000EA87FB874DE2403011F01F5F01C00B7F1D
:1007800004C00E94FF040E94150500FD11C015174A
:1007900078F407FF08C002FF04C00B7F242F11501C
:1007A00001C020E301C020E20E94F6045150EFCFC7
:1007B000312F01FF17C03030A1F003FF06C0EE81DA
:1007C000FF812591EE83FF8305C0AE81BF812D910E
:1007D000AE83BF830E94F604503009F0515031506F
:1007E000EACF4BC020E3EE81FF810E949A06E887A2
:1007F000F987EE81FF813296EE83FF83E885F985E4
:10080000AA85BB85AE17BF0750F02F5FA885B985B5
:10081000EA85FB85EA1BFB0BEA87FB87EFCF2A33D0
:1008200028F003FF02C0295F01C0295D04FD1AC042
:10083000213320F4A885B985119709F409C053170D
:1008400010F000FF01C013C020E207FF0BC020E33F
:10085000006102FF07C00B7F4A930E9405055030DC
:1008600009F051500E94F604503009F051503150B7
:10087000A885B985129708F0B5CF00FF08C05030A1
:1008800031F05150E0E2EA930E940505F8CF10E004
:10089000DDCEAC85BD850E948B060E94AA066496BB
:1008A0000895FF92F82E26970E94A5060E941D0526
:1008B000309719F4EFEFFFEF25C0DE0116960E9486
:1008C0005B068D010E941D05EE83FF83E0E0E88753
:1008D000E987DE011A960E945B060E948B06FA9356
:1008E000EA931A930A93EEEDF2E0FA93EA93FE018B
:1008F0003A96FA93EA93A0DE9F01AE81BF81E0E0D1
:10090000EC93F9010E94AC062A96FF900895B981F4
:10091000A881EC91EA930E94C004EE2311F0119695
:10092000F8CFE894EC91ED3211F4689402C0EB3208
:1009300009F4119666277727EC91EA930E94B80490
:10094000EE2379F0FB01660F771F660F771F6E0F9E
:100950007F1F660F771FED91FF27E0536E0F7F1FFC
:10096000EBCFFB011EF4E095F095319622960895A9
:10097000E1E0F991F03310F0FA3308F0EE27089532
:10098000E1E0F991F03229F0F93010F0FE3008F092
:10099000EE270895A991B991EE27FF276D9166235F
:1009A00011F03196FBCF0895AA27BB27E991F99161
:1009B0000590002011F01196FBCFFD010895EE8106
:1009C000FF81AA81BB81EA17FB070895AA93EA93E6
:1009D000FA93EFB7EA930895EE81FF81FA93EA93D1
:1009E00008950E946B060E949E0608952A93ED8545
:1009F000FE85FA93EA93E989FA8909950895E889C9
:100A0000F9893497E88BF98B0895ED85FE85FA9383
:100A1000EA93E989FA8909950895A889B98914960C
:100A20000E948B06EE83FF83D7CFA889B9891496DD
:100A30000E948B06EA87FB870895DE011C960E94C0
:100A40005B060E948B060895552342F4503811F43A
:100A5000E0FF04C03196691F791F6BF050E85727FB
:100A600011F45F93C8C05F3F31F0660F000C5795DB
:100A70006795752F08955F9300200AF0C8C0C1C024
:100A800050E8192E1522880F991F9527550F879525
:100A900050E8072E0522660F771F7527550F6795BB
:100AA0000895689401C0E8945F93F2DF703818F0FD
:100AB0007F3F08F4A0C056E1571BAAF45195583067
:100AC0000EF4593030F0EFEFFFEF6FEF7FE777F97B
:100AD0001AC077275523B9F0EE0FFF1F661F771F47
:100AE0005A95D1F710C07727583028F0EF2FF62FFE
:100AF000672F5850F9CF552331F076956795F795C4
:100B0000E7955A95D1F700200AF4DDD05F9108955A
:100B1000689401C0E894309760407040B1F00024C0
:100B200026F0772312F40094CED0172E7EE1112008
:100B300032F07A95EE0FFF1F661F111CF9CFEF2FD1
:100B4000F62F612D5F938ADF5F9108954F93AF0178
:100B5000FD01DA01AB01BC01CA01402D012C142EAC
:100B60004F910895EA0FFB1F681F0895E095F095D7
:100B70006095EF5FFF4F6F4F08955F9381DF90386F
:100B800039F1703821F1572F591B2BF112F4DEDFA8
:100B9000FACF583118F0AA27BB278827583028F0F9
:100BA000AB2FB82F88275850F9CF552329F08695B9
:100BB000B795A7955A95D9F7502D512572F0D2DFE8
:100BC00038F46795F795E795739513F420C0BEDF69
:100BD00045DF5F910895D8F7FBCFEA1BFB0B680B4D
:100BE00051F010F40094C2DF662392F3EE0FFF1F62
:100BF000661F7A95CBF7EE27FF27662777275F9149
:100C00000895EFEFFFEF6FE77FEF5F910895EFEF4C
:100C1000FFEF6FE77FE75F9108955F9331DF7038F3
:100C200051F3903841F301240894791F23F41CF305
:100C300000203AF3ECCF0F921F932F933F934F93E3
:100C4000112722279927689FA0018F9F302D410DE2
:100C5000591F6B9F300D411D591F8E9F27D0BF9F7D
:100C600025D06A9F23D0BE9F1DD0AF9F1BD0AE9FC3
:100C7000110D291F391F491F591FE32FF42F652F0D
:100C8000522F4F913F912F911F910F9066232AF081
:100C9000550FEE1FFF1F661F02C073954BF2D4DE87
:100CA0005F910895100D211D391F02C0200D311DC7
:100CB000491F591F08950024AF0DB01D0895F195E7
:100CC000E195F0400895F09560957095E195FF4F9E
:100CD0006F4F7F4F08956F2F660F660B762F089525
:100CE000FA9FF02DEB9FF00DEA9FE02DF10D089596
:100CF00004D0F6DF0EF4E3DF0895E894F7FF02C0B6
:100D0000DEDF6894B7FF06C0A095B095119600F895
:100D1000039400FA0895ED91FC9111970895ED91D7
:100D2000FD916D917C9113970895ED93FD936D93D3
:100D30007C9308950590F491E02D08957A936A9339
:100D4000FA93EA9308955A934A933A932A931A93FB
:100D50000A9308955D814C813B812A811981088124
:100D60000895AC0FBD1F05900D928A95E1F7089587
:00000001FF
