:0C0000000C94C6000C9400000C9400004E
:10000C000C9400000C9400000C9400000C942A0238
:10001C000C943B020C944C020C9400000C940802BF
:10002C000C9400000C9400000C9400000C94000044
:10003C000C9400000C9400000C9400000C94000034
:10004C000C9400000C9400000C9400000C94000024
:10005C000C9400000C9400000C9400000C94000014
:10006C000C9400000C9400000C9400000C941102F1
:10007C000C9400000C9400000C9400000C940000F4
:10008C001027E80364000A000100001000011000B2
:10009C0001000A0047AA6F3B0000000000000000AE
:1000AC000000000000000000000000000000000044
:1000BC000000000000000000000000000000000034
:1000CC000000000000000000000000000000000024
:1000DC000000000000000000000000000000000014
:1000EC000000000000000000000000000000000004
:1000FC0000000000000000000000000000000000F4
:10010C0000000000000000000000000000000000E3
:10011C0000000000000000000000000000000000D3
:10012C0000000000000000000000000000000000C3
:10013C0000000000000000000000476F616C3D25CE
:10014C00642C2063757272656E743D25642C204599
:10015C0072723D2564200D0A000001002D4E414EA7
:10016C0000494E460000010000059E0004001405E5
:10017C00A000080004003E01010018056601000003
:10018C00F894EE27ECBBF1E0F5BFE5BFE0936C0013
:10019C00F8E1F1BDE1BD8DE0A2E0BB27ED938A95BE
:1001AC00E9F780E090E1A0E0B1E0ED930197E9F789
:1001BC00E2E7F1E085919591009761F0A591B591F9
:1001CC0005901590BF01F00105900D920197E1F794
:1001DC00FB01F0CF8BBFEFEFEDBFE0E1EEBFC0E076
:1001EC00D5E00C946202BE9ABF9ABC9ABB9AC49892
:1001FC00C398BA9ABD9AC298C5980895E0E0E09366
:10020C009B00E8E9E0939A00E6E0E0939D00ADE9FD
:10021C00B0E0EC91EC93E0E0E0939800E7E0E09341
:10022C0099000895E0919B00E072E1F3E881E0937E
:10023C009C0021960895A881B981EC91E03031F0B1
:10024C00ED91A883B983EA93EDDFF5CF229608955B
:10025C00E4E5EABFE0EEE9BF159816981798089503
:10026C00E5E0E5BDEAE2EFBDE8E1EEBDEEB5E1604B
:10027C00EEBDE0E0F0E0F9BDE8BDE0937900E0937D
:10028C007800ECE2F1E0F7BDE6BDE0E4E7BF0895ED
:10029C001A930A93EC81FD81AA81BB81AE17BF072B
:1002AC001CF00C811D811CC00E94FC0444F0EE81EA
:1002BC00FF81AFEFBFEF0E94E1068F0111C00E94DA
:1002CC00FC041CF4AB81AA230AF008C0EA81FB8170
:1002DC00AFEFBFEF0E94E1068F0102C00A811B81C4
:1002EC00F80119810881289608952C978CE0A0E0DC
:1002FC00B0E0E4EAF0E00E9427071A930A9300E0CA
:10030C0010E0AA89BB89EC89FD89EA1BFB0B0E94D2
:10031C00D4060E94A705EA83FB836C837D83A0E04F
:10032C00B0E080E490E40E943106EA87FB876C879A
:10033C007D87A889B9890E94F806A0E0B0E080E02A
:10034C0090E00E94E105A889B9890E94FE06AE855D
:10035C00BF850E94F806AA81BB818C819D810E9479
:10036C000C070E94DA05AAE0B7ED83E29CE30E9439
:10037C003106DF01CB01E0911405F0911505609178
:10038C001605709117050E947F06EE83FF83688720
:10039C007987A889B9890E94F806AA85BB858C85BE
:1003AC009D850E94E105AE81BF81888599850E945B
:1003BC00E1050E9470058F01EA81FB816C817D81D2
:1003CC00AE85BF850E94FE06F801198108816696EC
:1003DC000895AB81AA231AF4C49AC39A05C0AB81C1
:1003EC00AA2372F0C498C398E881F981F9BDE8BDDD
:1003FC00E070EF2FF0E0E0937900E881E093780073
:10040C0024960895EA93EFB7EA93EFEFBE0EE991C5
:10041C00EFBFE9911895EA93FA93EFB7EA938090BE
:10042C009C00EAE0E81541F06624E72DF0E0E0508E
:10043C00FB4F8082739403C07724E1E06E2EE99128
:10044C00EFBFF991E99118950E940305A0E00D9971
:10045C00A1E0E0E00E99E1E0EA1719F0F201319722
:10046C0002C0F20131962F0121C00E940305A0E0C9
:10047C000E99A1E0E0E00F99E1E0EA1719F0F20122
:10048C00319702C0F20131962F0110C00E94030572
:10049C00A0E00F99A1E0E0E00D99E1E0EA1719F076
:1004AC00F201319702C0F20131962F01E991EFBFB1
:1004BC00F991E991A9911895EF97EF9760978EE8CC
:1004CC00A0E0B0E0E0EBF0E00E94270700E010E0D5
:1004DC0020E030E040E050E091DEC2DE84DEB8DEA9
:1004EC007894662041F0E0E0F5E0FA93EA930E94FC
:1004FC00A4049F01662400E010E00431E0E01E0734
:10050C004CF4A0E0B5E0A00FB11FE0E0EC930F5F5E
:10051C001F4FF3CFF201A6E0B0E00E94E106AF015D
:10052C003A932A935A934A93FE01E657FF4FFA9354
:10053C00EA93FE01E057FF4FFA93EA93D6DEEA8383
:10054C00FB83E6E5FFEFFA93EA93EAEAF0E0FA932D
:10055C00EA930E9409059CDEE883F983EA81FB811A
:10056C00FA93EA93EA81FB81FA93EA9332DFE4B5DA
:10057C00BE0EE0E0E4BDEB2DF0E00E94D4060E943C
:10058C00A705A8E1B4EB80E998E30E943106E0935B
:10059C001405F09315056093160570931705FE016D
:1005AC003496FA93EA93E6E4F1E0FA93EA93F901CC
:1005BC000E940E05FA010E940E05FE01EA56FF4F3D
:1005CC000190119061917081F0010E9470050E9460
:1005DC000E058CE00E946E046096FE013496FA9330
:1005EC00EA9329DEBB247DCFFFCF1A930A93AA810D
:1005FC00BB8112960E94F406309759F1AA81BB81F7
:10060C0014960E94F4068F01309761F00230E0E0FE
:10061C001E07F0F0F80131978F01AA81BB81149667
:10062C00ED93FC93AA81BB811296ED91FD913196CD
:10063C00FE93EE933197AC81A083AA81BB810E947B
:10064C00F406FF232AF0ED91FD913196FE93EE9383
:10065C0006C0AA81BB81EFEFFFEFED93FC931981EC
:10066C0008812596089526970E94190710E0AC85FD
:10067C00BD85E0E0F0E0ED93FC93EA89FB893196CF
:10068C00EA8BFB8B3197E4912E2FE03011F40C9414
:10069C006604E12FE03039F4253211F411E002C088
:1006AC000E9413050CC1E130A9F4253219F40E9403
:1006BC00130504C112E040E000E02D3211F401E01A
:1006CC00FEC02B3211F44BE2FAC0203211F440E29E
:1006DC00F6C002C0E23039F450E013E0203311F4DC
:1006EC000068EDC004C0E33011F00C9465042033B5
:1006FC0010F02A3308F007C0AAE05A9F502DE22FC1
:10070C00E0535E0FDCC0E22FE33649F40E941C0577
:10071C00E889F989A481AA930E942205CFC0E33706
:10072C0041F40E941C050E942A050E94E7041E2F1A
:10073C000AC0E03761F40E941C050E942A050E9441
:10074C00F1041E2F086002600F7730E035C0E436EC
:10075C0011F0E93611F4046002C0E53731F4ECE82D
:10076C00F0E0EE83FF8315E00DC0E83511F408606E
:10077C0004C0E83711F00C946404E6E9F0E0EE8371
:10078C00FF8314E002FF14C00E941C050E94320576
:10079C00AB85AA233AF4EA85FB850E94C806EA8752
:1007AC00FB874DE2403011F01F5F01C00B7F04C08E
:1007BC000E941C050E94320500FD11C0151778F42B
:1007CC0007FF08C002FF04C00B7F242F115001C08B
:1007DC0020E301C020E20E9413055150EFCF312FCE
:1007EC0001FF17C03030A1F003FF06C0EE81FF817E
:1007FC002591EE83FF8305C0AE81BF812D91AE8321
:10080C00BF830E941305503009F051503150EACF8C
:10081C004BC020E3EE81FF810E940307E887F98734
:10082C00EE81FF813296EE83FF83E885F985AA85F8
:10083C00BB85AE17BF0750F02F5FA885B985EA8539
:10084C00FB85EA1BFB0BEA87FB87EFCF2A3328F0EB
:10085C0003FF02C0295F01C0295D04FD1AC02133CA
:10086C0020F4A885B985119709F409C0531710F025
:10087C0000FF01C013C020E207FF0BC020E30061A2
:10088C0002FF07C00B7F4A930E942205503009F0EB
:10089C0051500E941305503009F051503150A88529
:1008AC00B985129708F0B5CF00FF08C0503031F071
:1008BC005150E0E2EA930E942205F8CF10E0DDCE21
:1008CC00AC85BD850E94F4060E94200764960895AD
:1008DC00FF92F82E26970E941B070E943A0530972C
:1008EC0019F4EFEFFFEF25C0DE0116960E94C40647
:1008FC008D010E943A05EE83FF83E0E0E887E987EB
:10090C00DE011A960E94C4060E94F406FA93EA933A
:10091C001A930A93EBEFF2E0FA93EA93FE013A96FC
:10092C00FA93EA93A0DE9F01AE81BF81E0E0EC93E5
:10093C00F9010E9422072A96FF900895B981A88197
:10094C00EC91EA930E94DD04EE2311F01196F8CF9E
:10095C00E894EC91ED3211F4689402C0EB3209F496
:10096C00119666277727EC91EA930E94D504EE2323
:10097C0079F0FB01660F771F660F771F6E0F7F1FD5
:10098C00660F771FED91FF27E0536E0F7F1FEBCFA4
:10099C00FB011EF4E095F095319622960895E1E066
:1009AC00F991F03310F0FA3308F0EE270895E1E0F6
:1009BC00F991F03229F0F93010F0FE3008F0EE2702
:1009CC000895A991B991EE27FF276D91662311F037
:1009DC003196FBCF0895AA27BB27E991F991059091
:1009EC00002011F01196FBCFFD010895EE81FF81DF
:1009FC00AA81BB81EA17FB070895AA93EA93FA939D
:100A0C00EFB7EA930895EE81FF81FA93EA93089584
:100A1C000E94D4060E94070708952A93ED85FE854F
:100A2C00FA93EA93E989FA8909950895E889F9898D
:100A3C003497E88BF98B0895ED85FE85FA93EA934C
:100A4C00E989FA8909950895A889B98914960E94AB
:100A5C00F406EE83FF83D7CFA889B98914960E9438
:100A6C00F406EA87FB870895DE011C960E94C406F3
:100A7C000E94F4060895552342F4503811F4E0FF17
:100A8C0004C03196691F791F6BF050E8572711F499
:100A9C005F93CFC05F3F31F0660F000C57956795A1
:100AAC00752F08955F9300200AF0CFC0C8C050E89E
:100ABC00192E1522880F991F9527550F879550E8E9
:100ACC00072E0522660F771F7527550F679508951A
:100ADC00689401C0E8945F93F2DF703818F07F3FA0
:100AEC0008F4A7C056E1571BAAF4519558300EF4E0
:100AFC00593030F0EFEFFFEF6FEF7FE777F91AC067
:100B0C0077275523B9F0EE0FFF1F661F771F5A95F5
:100B1C00D1F710C07727583028F0EF2FF62F672F1A
:100B2C005850F9CF552331F076956795F795E795A1
:100B3C005A95D1F700200AF429D15F910895689451
:100B4C0001C0E894309760407040B1F0002426F06A
:100B5C00772312F400941AD1172E7EE1112032F073
:100B6C007A95EE0FFF1F661F111CF9CFEF2FF62F92
:100B7C00612D5F938ADF5F9108954F93AF01FD0163
:100B8C00DA01AB01BC01CA01402D012C142E4F918E
:100B9C000895EA0FFB1F681F0895E095F095609586
:100BAC00EF5FFF4F6F4F08955F9381DF903871F1C6
:100BBC0050E8152604C05F937ADF903839F170380D
:100BCC0021F1572F591B2BF112F4D7DFFACF5831E3
:100BDC0018F0AA27BB278827583028F0AB2FB82F3E
:100BEC0088275850F9CF552329F08695B795A795A6
:100BFC005A95D9F7502D512572F0CBDF38F4679503
:100C0C00F795E795739513F420C0B7DF3EDF5F913E
:100C1C000895D8F7FBCFEA1BFB0B680B51F010F4CF
:100C2C000094BBDF662392F3EE0FFF1F661F7A95CD
:100C3C00CBF7EE27FF27662777275F910895EFEF15
:100C4C00FFEF6FE77FEF5F910895EFEFFFEF6FE737
:100C5C007FE75F9108955F932ADF703851F39038E6
:100C6C0041F301240894791F23F41CF300203AF378
:100C7C00ECCF0F921F932F933F934F931127222763
:100C8C009927689FA0018F9F302D410D591F6B9F95
:100C9C00300D411D591F8E9F27D0BF9F25D06A9FB5
:100CAC0023D0BE9F1DD0AF9F1BD0AE9F110D291F0F
:100CBC00391F491F591FE32FF42F652F522F4F91C6
:100CCC003F912F911F910F9066232AF0550FEE1F25
:100CDC00FF1F661F02C073954BF2CDDE5F91089526
:100CEC00100D211D391F02C0200D311D491F591F28
:100CFC0008955F93DCDE703821F411200AF49FCF45
:100D0C00A4CF903809F495CF01240894970B1BF4C9
:100D1C00D4F30020F3CF792F1F932F933F934F934E
:100D2C0011241127222733274427552790E2AE1789
:100D3C00BF078607410730F0AE1BBF0B860B410B7C
:100D4C00089401C08894551F221F331F111CAA1F21
:100D5C00BB1F881F441F9A9551F7F901612D4F91C4
:100D6C003F912F911F91662332F0550FEE1FFF1FFD
:100D7C00661F7A9543F27FDE5F9108950024AF0DD4
:100D8C00B01D0895F195E195F0400895F0956095AA
:100D9C007095E195FF4F6F4F7F4F08956F2F660F42
:100DAC00660B762F0895FA9FF02DEB9FF00DEA9FBE
:100DBC00E02DF10D089504D0F6DF0EF4E3DF089575
:100DCC00E894F7FF02C0DEDF6894B7FF06C0A09579
:100DDC00B095119600F8039400FA0895ED91FC91EA
:100DEC0011970895ED91FD916D917C911397089554
:100DFC00ED93FD936D937C9308950590F491E02D04
:100E0C0008957A936A93FA93EA930895182E862F8D
:100E1C00612D192E972F712D1B2EBF2FF12D1A2EF0
:100E2C00AE2FE12D08955A934A933A932A931A932D
:100E3C000A9308955D814C813B812A811981088137
:100E4C000895AC0FBD1F05900D928A95E1F708959A
:00000001FF
