:040000000C94C60096
:100004000C9400000C9400000C9400000C9400006C
:100014000C9400000C9470010C9481010C949201D6
:100024000C9400000C944E010C9400000C940000FD
:100034000C9400000C9400000C9400000C9400003C
:100044000C9400000C9400000C9400000C9400002C
:100054000C9400000C9400000C9400000C9400001C
:100064000C9400000C9400000C9400000C9400000C
:100074000C9400000C9457010C9400000C940000A4
:100084000C9400000C9400001027E80364000A009C
:10009400010000100001100001000A0047AA6F3B94
:1000A400000000000000000000000000000000004C
:1000B400000000000000000000000000000000003C
:1000C400000000000000000000000000000000002C
:1000D400000000000000000000000000000000001C
:1000E400000000000000000000000000000000000C
:1000F40000000000000000000000000000000000FC
:1001040000000000000000000000000000000000EB
:1001140000000000000000000000000000000000DB
:1001240000000000000000000000000000000000CB
:1001340000000000000000000000000000000000BB
:100144000000476F616C3D25642C206375727265F5
:100154006E743D25642C204572723D2564200D0A81
:10016400000001002D4E414E00494E4600000100A2
:1001740000059E0004001405A000080004003E01D0
:100184000100180566010000F894EE27ECBBF1E0CD
:10019400F5BFE5BFE0936C00F8E1F1BDE1BD8DE092
:1001A400A2E0BB27ED938A95E9F780E090E1A0E017
:1001B400B1E0ED930197E9F7E2E7F1E085919591DC
:1001C400009761F0A591B59105901590BF01F001DC
:1001D40005900D920197E1F7FB01F0CF8BBFEFEF94
:1001E400EDBFE0E1EEBFC0E0D5E00C94A801BE9AFB
:1001F400BF9ABC9ABB9AC498C398BA9ABD9AC2983B
:10020400C5980895E0E0E0939B00E8E9E0939A0044
:10021400E6E0E0939D00ADE9B0E0EC91EC93E0E022
:10022400E0939800E7E0E09399000895E0919B0043
:10023400E072E1F3E881E0939C0021960895A8819F
:10024400B981EC91E03031F0ED91A883B983EA9360
:10025400EDDFF5CF22960895E4E5EABFE0EEE9BFCD
:100264001598169817980895E5E0E5BDEAE2EFBD04
:10027400E8E1EEBDEEB5E160EEBDE0E0F0E0F9BD31
:10028400E8BDE0937900E0937800ECE2F1E0F7BD9B
:10029400E6BDE0E4E7BF0895EA93EFB7EA93EFEF32
:1002A400BE0EE991EFBFE9911895EA93FA93EFB77F
:1002B400EA9380909C00EAE0E81541F06624E72D7B
:1002C400F0E0E050FB4F8082739403C07724E1E0B8
:1002D4006E2EE991EFBFF991E99118950E941B04E4
:1002E400A0E00D99A1E0E0E00E99E1E0EA1719F031
:1002F400F201319702C0F20131962F0121C00E9410
:100304001B04A0E00E99A1E0E0E00F99E1E0EA17F8
:1003140019F0F201319702C0F20131962F0110C099
:100324000E941B04A0E00F99A1E0E0E00D99E1E038
:10033400EA1719F0F201319702C0F20131962F0148
:10034400E991EFBFF991E991A9911895EF97EF978A
:1003540060978EE8A0E0B0E0E0EBF0E00E94830557
:1003640000E010E020E030E040E050E04BDF7CDFD4
:100374003EDF72DF7894662041F0E0E0F5E0FA9326
:10038400EA930E94C3039F01662400E010E0043155
:10039400E0E01E074CF4A0E0B5E0A00FB11FE0E0E0
:1003A400EC930F5F1F4FF3CFF201A6E0B0E00E9481
:1003B4005505AF01E4B5BE0EE0E0E4BDEB2DF0E081
:1003C4000E9448050E94BC04A8E1B4EB80E998E3CC
:1003D4000E94EA04E0931405F09315056093160552
:1003E40070931705FE013496FA93EA93E6E4F1E07C
:1003F400FA93EA93F2010E942104FA010E94210473
:10040400FE01EA56FF4F0190119061917081F00155
:100414000E9485040E9421048CE00E948D03609652
:10042400FE013496FA93EA930ADFBB24A4CFFFCFEC
:100434001A930A93AA81BB8112960E946805309789
:1004440059F1AA81BB8114960E9468058F013097E7
:1004540061F00230E0E01E07F0F0F80131978F01FF
:10046400AA81BB811496ED93FC93AA81BB81129659
:10047400ED91FD913196FE93EE933197AC81A0837B
:10048400AA81BB810E946805FF232AF0ED91FD91AA
:100494003196FE93EE9306C0AA81BB81EFEFFFEF86
:1004A400ED93FC93198108812596089526970E945F
:1004B400750510E0AC85BD85E0E0F0E0ED93FC93BC
:1004C400EA89FB893196EA8BFB8B3197E4912E2FD5
:1004D400E03011F40C948503E12FE03039F4253237
:1004E40011F411E002C00E9426040CC1E130A9F409
:1004F400253219F40E94260404C112E040E000E011
:100504002D3211F401E0FEC02B3211F44BE2FAC09B
:10051400203211F440E2F6C002C0E23039F450E077
:1005240013E0203311F40068EDC004C0E33011F08F
:100534000C948403203310F02A3308F007C0AAE097
:100544005A9F502DE22FE0535E0FDCC0E22FE336BA
:1005540049F40E942F04E889F989A481AA930E948E
:100564003504CFC0E33741F40E942F040E943D04B8
:100574000E9406041E2F0AC0E03761F40E942F0473
:100584000E943D040E9410041E2F086002600F7731
:1005940030E035C0E43611F0E93611F4046002C0ED
:1005A400E53731F4ECE8F0E0EE83FF8315E00DC0AD
:1005B400E83511F4086004C0E83711F00C948303A3
:1005C400E6E9F0E0EE83FF8314E002FF14C00E942A
:1005D4002F040E944704AB85AA233AF4EA85FB85DD
:1005E4000E943C05EA87FB874DE2403011F01F5F13
:1005F40001C00B7F04C00E942F040E94470400FD29
:1006040011C0151778F407FF08C002FF04C00B7F60
:10061400242F115001C020E301C020E20E942604CF
:100624005150EFCF312F01FF17C03030A1F003FF3D
:1006340006C0EE81FF812591EE83FF8305C0AE8164
:10064400BF812D91AE83BF830E942604503009F0F0
:1006540051503150EACF4BC020E3EE81FF810E941C
:100664006C05E887F987EE81FF813296EE83FF837C
:10067400E885F985AA85BB85AE17BF0750F02F5FC3
:10068400A885B985EA85FB85EA1BFB0BEA87FB870E
:10069400EFCF2A3328F003FF02C0295F01C0295D90
:1006A40004FD1AC0213320F4A885B985119709F4F3
:1006B40009C0531710F000FF01C013C020E207FF68
:1006C4000BC020E3006102FF07C00B7F4A930E9426
:1006D4003504503009F051500E942604503009F07E
:1006E40051503150A885B985129708F0B5CF00FF55
:1006F40008C0503031F05150E0E2EA930E943504D2
:10070400F8CF10E0DDCEAC85BD850E9468050E945F
:100714007C0564960895FF92F82E26970E9477052B
:100724000E944F04309719F4EFEFFFEF25C0DE016C
:1007340016960E9438058D010E944F04EE83FF83B4
:10074400E0E0E887E987DE011A960E9438050E94F6
:100754006805FA93EA931A930A93EAE1F2E0FA93AA
:10076400EA93FE013A96FA93EA93A0DE9F01AE81E2
:10077400BF81E0E0EC93F9010E947E052A96FF9088
:100784000895B981A881EC91EA930E94FC03EE23B9
:1007940011F01196F8CFE894EC91ED3211F46894CD
:1007A40002C0EB3209F4119666277727EC91EA939D
:1007B4000E94F403EE2379F0FB01660F771F660FA6
:1007C400771F6E0F7F1F660F771FED91FF27E05392
:1007D4006E0F7F1FEBCFFB011EF4E095F095319671
:1007E40022960895E1E0F991F03310F0FA3308F01D
:1007F400EE270895E1E0F991F03229F0F93010F094
:10080400FE3008F0EE270895A991B991EE27FF274D
:100814006D91662311F03196FBCF0895AA27BB276B
:10082400E991F9910590002011F01196FBCFFD019B
:100834000895AA93EA93FA93EFB7EA9308950E946E
:1008440048050E94700508952A93ED85FE85FA9364
:10085400EA93E989FA8909950895E889F989349729
:10086400E88BF98B0895ED85FE85FA93EA93E9897F
:10087400FA8909950895A889B98914960E9468058A
:10088400EE83FF83FA93EA930895A889B9891496AD
:100894000E946805EA87FB870895DE011C960E9482
:1008A40038050E9468050895552342F4503811F420
:1008B400E0FF04C03196691F791F6BF050E8572799
:1008C40011F45F9373C05F3F31F0660F000C5795CE
:1008D4006795752F08955F9300200AF073C06CC06C
:1008E40050E8192E1522880F991F9527550F8795C3
:1008F40050E8072E0522660F771F7527550F679559
:100904000895689401C0E8945F93F2DF703818F09A
:100914007F3F08F44BC056E1571BAAF45195583059
:100924000EF4593030F0EFEFFFEF6FEF7FE777F918
:100934001AC077275523B9F0EE0FFF1F661F771FE4
:100944005A95D1F710C07727583028F0EF2FF62F9B
:10095400672F5850F9CF552331F076956795F79561
:10096400E7955A95D1F700200AF488D05F9108954D
:10097400689401C0E894309760407040B1F000245E
:1009840026F0772312F4009479D0172E7EE11120FB
:1009940032F07A95EE0FFF1F661F111CF9CFEF2F6F
:1009A400F62F612D5F938ADF5F910895EE27FF276D
:1009B400662777275F910895EFEFFFEF6FE77FEFEB
:1009C4005F910895EFEFFFEF6FE77FE75F91089581
:1009D4005F9386DF703851F3903841F30124089413
:1009E400791F23F41CF300203AF3ECCF0F921F93EA
:1009F4002F933F934F93112722279927689FA00194
:100A04008F9F302D410D591F6B9F300D411D591F74
:100A14008E9F27D0BF9F25D06A9F23D0BE9F1DD015
:100A2400AF9F1BD0AE9F110D291F391F491F591F9E
:100A3400E32FF42F652F522F4F913F912F911F9148
:100A44000F9066232AF0550FEE1FFF1F661F02C08A
:100A540073954BF229DF5F910895100D211D391F05
:100A640002C0200D311D491F591F08950024AF0DE8
:100A7400B01D0895F195E195F0400895F0956095C5
:100A84007095E195FF4F6F4F7F4F08956F2F660F5D
:100A9400660B762F0895FA9FF02DEB9FF00DEA9FD9
:100AA400E02DF10D089504D0F6DF0EF4E3DF089590
:100AB400E894F7FF02C0DEDF6894B7FF06C0A09594
:100AC400B095119600F8039400FA0895ED91FC9105
:100AD400119708950590F491E02D08957A936A93FF
:100AE400FA93EA9308955A934A933A932A931A935A
:100AF4000A9308955D814C813B812A811981088183
:100B04000895AC0FBD1F05900D928A95E1F70895E5
:00000001FF
