:100000000C9407010C9400000C9400000C94000068
:100010000C9400000C9400000C94A3020C94B70202
:100020000C94CB020C9485020C9400000C940000FC
:100030000C9400000C9400000C9400000C94000040
:100040000C9400000C9400000C9400000C94000030
:100050000C9400000C9400000C9400000C94000020
:100060000C9400000C9400000C9400000C94000010
:100070000C9400000C9400000C948A020C94000074
:100080000C9400000C9400000C9400001027E8036E
:1000900064000A00010000100001100001000A00C5
:1000A0000AD7233C00000000000000000000000010
:1000B0000000000000000000000000000000000040
:1000C0000000000000000000000000000000000030
:1000D0000000000000000000000000000000000020
:1000E0000000000000000000000000000000000010
:1000F0000000000000000000000000000000000000
:1001000000000000000000000000000000000000EF
:1001100000000000000000000000000000000000DF
:1001200000000000000000000000000000000000CF
:1001300000000000000000000000000000000000BF
:1001400000000000000000000000000000000000AF
:10015000000000000000000000000000000000009F
:10016000000000000000000000000000000000008F
:10017000000000000000000000000000000000007F
:10018000000000000000000000000000000000006F
:10019000000000000000000000000000000000005F
:1001A000000000000000000000000000000000004F
:1001B000000000000000000000000000000000003F
:1001C000000000000000000000000000000000002F
:1001D000476F616C3D25642C25642C25642C2564B7
:1001E0002C2564200D0A000001002D4E414E0049CF
:1001F0004E460000010004059E0004001805A00002
:1002000006000600CA0101001C05E8010000F89480
:10021000EE27ECBBF1E0F5BFE5BFE0936C00F8E141
:10022000F1BDE1BD8DE0A2E0BB27ED938A95E9F732
:1002300080E090E1A0E0B1E0ED930197E9F7E4EF11
:10024000F1E085919591009761F0A591B5910590A8
:100250001590BF01F00105900D920197E1F7FB01A8
:10026000F0CF8BBFEFEFEDBFE0E1EEBFC0E0D5E038
:100270000C94E702BE9ABF9ABC9ABB9AC498C398E2
:10028000BA9ABD9AC298C5980895E0E0E0939B00A1
:10029000E8E9E0939A00E6E0E0939D00ADE9B0E084
:1002A000EC91EC93E0E0E0939800E7E0E0939900B4
:1002B0000895E0919B00E072E1F3E881E0939C00F7
:1002C00021960895A881B981EC91E03031F0ED914B
:1002D000A883B983EA93EDDFF5CF22960895E4E58C
:1002E000EABFE0EEE9BF1598169817980895EDE07B
:1002F000E5BDEAE2EFBDE8E1EEBDEEB5E160EEBDE1
:10030000E6E9E3BDE0E0F0E0F9BDE8BDE0937900A7
:10031000E0937800E0E2F3E0F7BDE6BDE0E8E7BF98
:1003200008951A930A930E94C3050E94230844F576
:100330000E94C805AE81BF810E94E2070E942E087C
:100340001CF00E94CD050CF403C0EA81FB813BC088
:10035000EE81FF810E94C3050E94DD070E942908EB
:100360001CF4EE81FF812FC00E94C805A885B985C5
:100370000E94E2070E9429081CF4E885F98523C041
:10038000AD81AA23F2F4EA81FB810E94D1078F019B
:10039000AE81BF81A017B10718F00E94CD050CF403
:1003A00002C0F80110C0EE81FF81E017F10708F4E8
:1003B0000AC0A885B9850A171B0718F4E885F985CE
:1003C00002C0E0E0F0E0198108812A960895EF97D5
:1003D000EF97629780E9A0E0B0E0E4EAF0E00E94E5
:1003E0004108FE01EC56FF4F019011906191708120
:1003F000F001DE01A856BF4F0D90BC91A02D0E94C8
:10040000E2070E9413080E9416080E94E306DE011C
:10041000A058BF4FED93FD936D937C930E94D5053B
:10042000A0E0B0E080E291E40E943A07DE01A45728
:10043000BF4F0E9479060E94FE070E94DE050E94BF
:10044000F307A0E0B0E080E090E00E94EA060E949E
:10045000DE050E94FE07E0E0DE01A857BF4FED93E6
:10046000ED93ED93EC930E94DE050E94F307DE010D
:10047000A457BF4F0D901D908D919C91D0010E946B
:1004800013080E94EA06DE01A857BF4F0D901D9089
:100490008D919C91D0010E94EA060E947906DE01AE
:1004A000AC57BF4FED93FD936D937C930E94D505A0
:1004B000DE01A057BF4F0D90BC91A02D0E94FE07FA
:1004C000FE01EC57FF4F0190119061917081F00196
:1004D000EF96EF966C960895AD81AA231AF4C49A0C
:1004E000C39A05C0AD81AA2372F0C498C398E8816D
:1004F000F981F9BDE8BDE070EF2FF0E0E0937900FD
:10050000E881E093780026960895EA93E1E0BE2E14
:10051000E9911895EA93FA93EFB7EA9380909C00DB
:10052000EAE0E81541F06624E72DF0E0EC5FFA4FD1
:100530008082739403C07724E1E06E2EE991EFBFCF
:10054000F991E99118950E94E505A0E00D99A1E0C7
:10055000E0E00E99E1E0EA1729F00E94EE050E9422
:10056000F30504C00E94EE050E94FD0527C00E940D
:10057000E505A0E00E99A1E0E0E00F99E1E0EA17BF
:1005800029F00E94EE050E94F30504C00E94EE05CA
:100590000E94FD0513C00E94E505A0E00F99A1E0AF
:1005A000E0E00D99E1E0EA1729F00E94EE050E94D3
:1005B000F30504C00E94EE050E94FD05E991EFBF1E
:1005C000F991E991B991A991799169911895EF976C
:1005D000EF97689786E9A0E0B0E0E4E3F1E00E94DD
:1005E000410800E010E020E030E050E04EDE7FDE29
:1005F00041DE75DE7894BB2011F40C947903E09110
:100600000005F091010560910205709103050E94BB
:10061000B006DF01CB01EFE6F2E163E87AE30E9486
:100620008807DE01A657BF4FED93FD936D937C9332
:10063000662041F0E4E0F5E0FA93EA930E946B054E
:100640009F01662400E010E00431E0E01E074CF456
:10065000A4E0B5E0A00FB11FE0E0EC930F5F1F4FE7
:10066000F3CF3A932A93FE01E457FF4F0190119084
:1006700061917081F0010E940C08FE01EC56FF4F61
:10068000FA93EA93FE01E656FF4FFA93EA939FDE50
:10069000EA83FB836C837D830E940706A3E3B3E3B5
:1006A00083E79FE30E940E060E940706A8EBBEE1C7
:1006B00085E09FE30E940E06EE81FF8168857985C3
:1006C0000E940C082EDEE883F9830E94C8050E9470
:1006D0000C08EC81FD81FA93EA93FEDE5F5FBB2498
:1006E000E0E0E0930005E0930105E0930205E0936C
:1006F00003055A3011F00C94C003FE013696FA93AC
:10070000EA93E0EDF1E0FA93EA93F9010E9415060D
:10071000FE01EE56FF4F0190119061917081F00142
:100720000E9479060E941506FE01E256FF4F0190D5
:10073000119061917081F0010E9479060E94150666
:10074000EA89FB896C897D890E940C08C49B02C0E0
:10075000EFEF01C0E1E0F0E0E7FDFFEFAC89BD891C
:100760000E94E707662777270E940C0884E10E9411
:1007700035056896FE013696FA93EA93A3DD50E0BC
:100780003ACFFFCF1A930A93AA81BB8112960E9497
:10079000EF07309759F1AA81BB8114960E94EF07A9
:1007A0008F01309761F00230E0E01E07F0F0F801B1
:1007B00031978F01AA81BB811496ED93FC93AA8196
:1007C000BB811296ED91FD913196FE93EE93319798
:1007D000AC81A083AA81BB810E94EF07FF232AF08E
:1007E000ED91FD913196FE93EE9306C0AA81BB81F7
:1007F000EFEFFFEFED93FC931981088125960895A3
:1008000026970E94330810E0AC85BD85E0E0F0E05B
:10081000ED93FC93EA89FB893196EA8BFB8B319748
:10082000E4912E2FE03011F40C942D05E12FE030EF
:1008300039F4253211F411E002C00E941A060CC1ED
:10084000E130A9F4253219F40E941A0604C112E01D
:1008500040E000E02D3211F401E0FEC02B3211F433
:100860004BE2FAC0203211F440E2F6C002C0E2309E
:1008700039F450E013E0203311F40068EDC004C0F7
:10088000E33011F00C942C05203310F02A3308F0DB
:1008900007C0AAE05A9F502DE22FE0535E0FDCC044
:1008A000E22FE33649F40E942306E889F989A481FE
:1008B000AA930E942906CFC0E33741F40E94230681
:1008C0000E9431060E94AE051E2F0AC0E03761F477
:1008D0000E9423060E9431060E94B8051E2F086060
:1008E00002600F7730E035C0E43611F0E93611F4DC
:1008F000046002C0E53731F4ECE8F0E0EE83FF83FA
:1009000015E00DC0E83511F4086004C0E83711F0B7
:100910000C942B05E6E9F0E0EE83FF8314E002FF80
:1009200014C00E9423060E943B06AB85AA233AF41A
:10093000EA85FB850E94D107EA87FB874DE24030BC
:1009400011F01F5F01C00B7F04C00E9423060E94AC
:100950003B0600FD11C0151778F407FF08C002FF21
:1009600004C00B7F242F115001C020E301C020E2FE
:100970000E941A065150EFCF312F01FF17C03030BF
:10098000A1F003FF06C0EE81FF812591EE83FF8376
:1009900005C0AE81BF812D91AE83BF830E941A0630
:1009A000503009F051503150EACF4BC020E3EE8176
:1009B000FF810E940808E887F987EE81FF8132965F
:1009C000EE83FF83E885F985AA85BB85AE17BF074F
:1009D00050F02F5FA885B985EA85FB85EA1BFB0BE4
:1009E000EA87FB87EFCF2A3328F003FF02C0295F95
:1009F00001C0295D04FD1AC0213320F4A885B98502
:100A0000119709F409C0531710F000FF01C013C07B
:100A100020E207FF0BC020E3006102FF07C00B7F4D
:100A20004A930E942906503009F051500E941A063C
:100A3000503009F051503150A885B985129708F00F
:100A4000B5CF00FF08C0503031F05150E0E2EA93DA
:100A50000E942906F8CF10E0DDCEAC85BD850E944E
:100A6000EF070E943A0864960895FF92F82E2697A1
:100A70000E9435080E944306309719F4EFEFFFEF0C
:100A800025C0DE0116960E94CD078D010E94430607
:100A9000EE83FF83E0E0E887E987DE011A960E9493
:100AA000CD070E94EF07FA93EA931A930A93E2ECB8
:100AB000F3E0FA93EA93FE013A96FA93EA93A0DE02
:100AC0009F01AE81BF81E0E0EC93F9010E943C08F8
:100AD0002A96FF900895B981A881EC91EA930E942B
:100AE000A405EE2311F01196F8CFE894EC91ED32C5
:100AF00011F4689402C0EB3209F411966627772747
:100B0000EC91EA930E949C05EE2379F0FB01660FBD
:100B1000771F660F771F6E0F7F1F660F771FED9190
:100B2000FF27E0536E0F7F1FEBCFFB011EF4E09514
:100B3000F095319622960895E1E0F991F03310F0A6
:100B4000FA3308F0EE270895E1E0F991F03229F048
:100B5000F93010F0FE3008F0EE270895A991B99110
:100B6000EE27FF276D91662311F03196FBCF089594
:100B7000AA27BB27E991F9910590002011F0119661
:100B8000FBCFFD010895AA81BB818C819D810895D1
:100B9000EA81FB816C817D810895E885F985F3DF29
:100BA0000E94DD070E942E080895FE01E058FF4FC5
:100BB0000190119061917081F0010895DE01AE56AF
:100BC000BF4F0D90BC91A02D08956A937A93AA937C
:100BD000BA93EA93FA93EFB7EA930895A0E0B5E0E9
:100BE0000E94F90708953197604070400E94030801
:100BF000EF5FFF4F6F4F7F4F0895EF5FFF4F6F4FD6
:100C00007F4F0E9403083197604070400895E6B519
:100C1000F7B5662777270E94B00608950E943A0725
:100C20000E947906FA93EA9308950E94DD070E94D4
:100C30000C0808952A93ED85FE85FA93EA93E989D5
:100C4000FA8909950895E889F9893497E88BF98B31
:100C50000895ED85FE85FA93EA93E989FA89099565
:100C60000895A889B98914960E94EF07EE83FF833F
:100C7000FA93EA930895A889B98914960E94EF0718
:100C8000EA87FB870895DE011C960E94CD070E942B
:100C9000EF070895552342F4503811F4E0FF04C0E3
:100CA0003196691F791F6BF050E8572711F45F9355
:100CB000CFC05F3F31F0660F000C57956795752FD9
:100CC00008955F9300200AF0CFC0C8C050E8192EE5
:100CD0001522880F991F9527550F879550E8072EE5
:100CE0000522660F771F7527550F6795089568943D
:100CF00001C0E8945F93F2DF703818F07F3F08F48A
:100D0000A7C056E1571BAAF4519558300EF459303C
:100D100030F0EFEFFFEF6FEF7FE777F91AC077273B
:100D20005523B9F0EE0FFF1F661F771F5A95D1F7B5
:100D300010C07727583028F0EF2FF62F672F585024
:100D4000F9CF552331F076956795F795E7955A9544
:100D5000D1F700200AF429D15F910895689401C069
:100D6000E894309760407040B1F0002426F077237B
:100D700012F400941AD1172E7EE1112032F07A95E8
:100D8000EE0FFF1F661F111CF9CFEF2FF62F612DFD
:100D90005F938ADF5F9108954F93AF01FD01DA0100
:100DA000AB01BC01CA01402D012C142E4F910895B6
:100DB000EA0FFB1F681F0895E095F0956095EF5FBF
:100DC000FF4F6F4F08955F9381DF903871F150E8C6
:100DD000152604C05F937ADF903839F1703821F11D
:100DE000572F591B2BF112F4D7DFFACF583118F0D7
:100DF000AA27BB278827583028F0AB2FB82F882781
:100E00005850F9CF552329F08695B795A7955A954F
:100E1000D9F7502D512572F0CBDF38F46795F7954F
:100E2000E795739513F420C0B7DF3EDF5F91089517
:100E3000D8F7FBCFEA1BFB0B680B51F010F40094C2
:100E4000BBDF662392F3EE0FFF1F661F7A95CBF789
:100E5000EE27FF27662777275F910895EFEFFFEFD3
:100E60006FE77FEF5F910895EFEFFFEF6FE77FE7A9
:100E70005F9108955F932ADF703851F3903841F302
:100E800001240894791F23F41CF300203AF3ECCFDB
:100E90000F921F932F933F934F9311272227992748
:100EA000689FA0018F9F302D410D591F6B9F300D02
:100EB000411D591F8E9F27D0BF9F25D06A9F23D0E9
:100EC000BE9F1DD0AF9F1BD0AE9F110D291F391F94
:100ED000491F591FE32FF42F652F522F4F913F9138
:100EE0002F911F910F9066232AF0550FEE1FFF1FC1
:100EF000661F02C073954BF2CDDE5F910895100D11
:100F0000211D391F02C0200D311D491F591F089591
:100F10005F93DCDE703821F411200AF49FCFA4CF58
:100F2000903809F495CF01240894970B1BF4D4F35F
:100F30000020F3CF792F1F932F933F934F931124CA
:100F40001127222733274427552790E2AE17BF07E2
:100F50008607410730F0AE1BBF0B860B410B089490
:100F600001C08894551F221F331F111CAA1FBB1FCD
:100F7000881F441F9A9551F7F901612D4F913F91B8
:100F80002F911F91662332F0550FEE1FFF1F661F32
:100F90007A9543F27FDE5F9108950024AF0DB01D76
:100FA0000895F195E195F0400895F095609570955C
:100FB000E195FF4F6F4F7F4F08956F2F660F660BC0
:100FC000762F08958B2F880F880B982F0895FA9FFE
:100FD000F02DEB9FF00DEA9FE02DF10D0895ED91BE
:100FE000FC9111970895ED91FD916D917C9113976E
:100FF0000895ED91FD916D917D910895ED93FD938F
:101000006D937C9308957E936E93FE93EE93089573
:101010000590F491E02D08957A936A93FA93EA93F8
:101020000895689401C0E89401D09BDE182E862FA5
:10103000612D192E972F712D1B2EBF2FF12D1A2EDA
:10104000AE2FE12D089500240A160B0608060906A6
:101050000895EA17FB07680779070895AE17BF07D9
:101060008607970708955A934A933A932A931A93B7
:101070000A9308955D814C813B812A811981088101
:101080000895AC0FBD1F05900D928A95E1F7089564
:00000001FF
