:060000000C9405010C94B4
:1000060000000C9400000C9400000C9400000C946A
:1000160000000C9482020C9496020C94AA020C9492
:1000260000000C9460020C9400000C9400000C94E8
:1000360000000C9400000C9400000C9400000C943A
:1000460000000C9400000C9400000C9400000C942A
:1000560000000C9400000C9400000C9400000C941A
:1000660000000C9400000C9400000C9400000C940A
:1000760000000C9469020C9400000C9400000C948F
:1000860000000C9400001027E80364000A00010039
:1000960000100001100001000A0047AA6F3B000093
:1000A600000000000000000000000000000000004A
:1000B600000000000000000000000000000000003A
:1000C600000000000000000000000000000000002A
:1000D600000000000000000000000000000000001A
:1000E600000000000000000000000000000000000A
:1000F60000000000000000000000000000000000FA
:1001060000000000000000000000000000000000E9
:1001160000000000000000000000000000000000D9
:1001260000000000000000000000000000000000C9
:1001360000000000000000000000000000000000B9
:1001460000000000000000000000000000000000A9
:100156000000000000000000000000000000000099
:100166000000000000000000000000000000000089
:100176000000000000000000000000000000000079
:100186000000000000000000000000000000000069
:100196000000000000000000000000000000000059
:1001A6000000000000000000000000000000000049
:1001B6000000000000000000000000000000000039
:1001C600000000000000476F616C3D25642C25642B
:1001D6002C25642C25642C2564200D0A00000100C2
:1001E6002D4E414E00494E460000010004059E007A
:1001F60004001805A00006000600C60101001C0543
:10020600E4010000F894EE27ECBBF1E0F5BFE5BF92
:10021600E0936C00F8E1F1BDE1BD8DE0A2E0BB2703
:10022600ED938A95E9F780E090E1A0E0B1E0ED93E7
:100236000197E9F7E0EFF1E085919591009761F07C
:10024600A591B59105901590BF01F00105900D920D
:100256000197E1F7FB01F0CF8BBFEFEFEDBFE0E1D8
:10026600EEBFC0E0D5E00C94C602BE9ABF9ABC9A17
:10027600BB9AC498C398BA9ABD9AC298C59808956D
:10028600E0E0E0939B00E8E9E0939A00E6E0E09383
:100296009D00ADE9B0E0EC91EC93E0E0E0939800CE
:1002A600E7E0E09399000895E0919B00E072E1F3A6
:1002B600E881E0939C0021960895A881B981EC918C
:1002C600E03031F0ED91A883B983EA93EDDFF5CF05
:1002D60022960895E4E5EABFE0EEE9BF1598169880
:1002E60017980895E5E0E5BDEAE2EFBDE8E1EEBD69
:1002F600EEB5E160EEBDE0E0F0E0F9BDE8BDE0930B
:100306007900E0937800E0EBF4E0F7BDE6BDE0E4C9
:10031600E7BF08951A930A93EE81FF810E94A40510
:100326000E94D1071CF00E811F8124C0E885F98543
:100336000E94A4050E94CC0744F0E885F985AFEF3A
:10034600BFEF0E9485078F0115C0E885F9850E94D9
:10035600A4050E94CC071CF4AD81AA230AF008C0AC
:10036600EA81FB81AFEFBFEF0E9485078F0102C0D4
:100376000A811B81F801198108812A960895EF9751
:10038600EF97629780E9A0E0B0E0E4EAF0E00E942F
:10039600E407FE01EC56FF4F0190119061917081C8
:1003A600F001DE01A856BF4F0D90BC91A02D0E9412
:1003B60078070E94BC070E94BF070E94BE06DE01A6
:1003C600A058BF4FED93FD936D937C930E94AB05B0
:1003D600A0E0B0E088EC92E40E941507DE01A45785
:1003E600BF4F0E9454060E94A7070E94B4050E94B0
:1003F6009C07A0E0B0E080E090E00E94C5060E9465
:10040600B4050E94A707E0E0DE01A857BF4FED93B1
:10041600ED93ED93EC930E94B4050E949C07DE01D8
:10042600A457BF4F0D901D908D919C91D0010E94B5
:10043600BC070E94C506DE01A857BF4F0D901D9050
:100446008D919C91D0010E94C5060E945406DE0142
:10045600AC57BF4FED93FD936D937C930E94AB0514
:10046600DE01A057BF4F0D90BC91A02D0E94A7079B
:10047600FE01EC57FF4F0190119061917081F001E0
:10048600EF96EF966C960895AB81AA231AF4C49A58
:10049600C39A05C0AB81AA2372F0C498C398E881B9
:1004A600F981F9BDE8BDE070EF2FF0E0E093790047
:1004B600E881E093780024960895EA93EFB7EA93EB
:1004C600EFEFBE0EE991EFBFE9911895EA93FA9323
:1004D600EFB7EA9380909C00EAE0E81541F06624C5
:1004E600E72DF0E0EC5FFA4F8082739403C0772427
:1004F600E1E06E2EE991EFBFF991E99118950E941E
:10050600BB05A0E00D99A1E0E0E00E99E1E0EA1755
:1005160029F00E94C4050E94C90504C00E94C405B2
:100526000E94D30527C00E94BB05A0E00E99A1E05A
:10053600E0E00F99E1E0EA1729F00E94C4050E9465
:10054600C90504C00E94C4050E94D30513C00E94B9
:10055600BB05A0E00F99A1E0E0E00D99E1E0EA1704
:1005660029F00E94C4050E94C90504C00E94C40562
:100576000E94D305E991EFBFF991E991B991A9914B
:10058600799169911895EF97EF97649782E9A0E0C2
:10059600B0E0E4E3F1E00E94E40700E010E020E0D0
:1005A60030E040E050E06CDE9DDE5FDE93DE789466
:1005B600662041F0E4E0F5E0FA93EA930E944C05E8
:1005C6009F01662400E010E00431E0E01E074CF4D1
:1005D600A4E0B5E0A00FB11FE0E0EC930F5F1F4F62
:1005E600F3CFE0910005F09101056091020570914D
:1005F60003050E948B06A0E0B0E080EF90E40E9425
:100606001507DE01AA57BF4FED93FD936D937C93BB
:100616003A932A93FE01E857FF4F0190119061919A
:100626007081F0010E94B507FE01E057FF4FFA9373
:10063600EA93FE01EA56FF4FFA93EA93A0DEEA83B5
:10064600FB836C837D830E94DD050E941F060E944A
:100656005406FA93EA930E94DD050E945406FA9323
:10066600EA93EE81FF81688579850E94B50752DE9F
:10067600E883F983EA81FB81FA93EA93EA81FB81B5
:10068600FA93EA9301DFE4B5BE0EE0E0E4BDEB2D9C
:10069600F0E00E9473070E948B06A8E1B4EB80E9A4
:1006A60098E30E941507E0931805F09319056093E7
:1006B6001A0570931B05FE013696FA93EA93ECEC45
:1006C600F1E0FA93EA93F9010E94EA05FE01E25786
:1006D600FF4F0190119061917081F0010E945406C4
:1006E6000E94EA05FE01E656FF4F019011906191C6
:1006F6007081F0010E9454060E94EA05EA89FB898E
:100706006C897D890E94B507C49B02C0EFEF01C0CA
:10071600E1E0F0E0E7FDFFEFAC89BD890E947D07CF
:10072600662777270E94B50784E10E94160568961A
:10073600FE013696FA93EA93C0DDBB2439CFFFCF8C
:100746001A930A93AA81BB8112960E949807309742
:1007560059F1AA81BB8114960E9498078F013097A0
:1007660061F00230E0E01E07F0F0F80131978F01EA
:10077600AA81BB811496ED93FC93AA81BB81129644
:10078600ED91FD913196FE93EE933197AC81A08366
:10079600AA81BB810E949807FF232AF0ED91FD9163
:1007A6003196FE93EE9306C0AA81BB81EFEFFFEF71
:1007B600ED93FC93198108812596089526970E944A
:1007C600D60710E0AC85BD85E0E0F0E0ED93FC9344
:1007D600EA89FB893196EA8BFB8B3197E4912E2FC0
:1007E600E03011F40C940E05E12FE03039F4253297
:1007F60011F411E002C00E94EF050CC1E130A9F42A
:10080600253219F40E94EF0504C112E040E000E031
:100816002D3211F401E0FEC02B3211F44BE2FAC086
:10082600203211F440E2F6C002C0E23039F450E062
:1008360013E0203311F40068EDC004C0E33011F07A
:100846000C940D05203310F02A3308F007C0AAE0F7
:100856005A9F502DE22FE0535E0FDCC0E22FE336A5
:1008660049F40E94F805E889F989A481AA930E94AF
:10087600FE05CFC0E33741F40E94F8050E94060644
:100886000E948F051E2F0AC0E03761F40E94F8050A
:100896000E9406060E9499051E2F086002600F77C7
:1008A60030E035C0E43611F0E93611F4046002C0D8
:1008B600E53731F4ECE8F0E0EE83FF8315E00DC098
:1008C600E83511F4086004C0E83711F00C940C0503
:1008D600E6E9F0E0EE83FF8314E002FF14C00E9415
:1008E600F8050E941006AB85AA233AF4EA85FB8533
:1008F6000E946707EA87FB874DE2403011F01F5FD1
:1009060001C00B7F04C00E94F8050E94100600FD7E
:1009160011C0151778F407FF08C002FF04C00B7F4B
:10092600242F115001C020E301C020E20E94EF05F0
:100936005150EFCF312F01FF17C03030A1F003FF28
:1009460006C0EE81FF812591EE83FF8305C0AE814F
:10095600BF812D91AE83BF830E94EF05503009F011
:1009660051503150EACF4BC020E3EE81FF810E9407
:10097600B107E887F987EE81FF813296EE83FF8320
:10098600E885F985AA85BB85AE17BF0750F02F5FAE
:10099600A885B985EA85FB85EA1BFB0BEA87FB87F9
:1009A600EFCF2A3328F003FF02C0295F01C0295D7B
:1009B60004FD1AC0213320F4A885B985119709F4DE
:1009C60009C0531710F000FF01C013C020E207FF53
:1009D6000BC020E3006102FF07C00B7F4A930E9411
:1009E600FE05503009F051500E94EF05503009F0D5
:1009F60051503150A885B985129708F0B5CF00FF40
:100A060008C0503031F05150E0E2EA930E94FE05F2
:100A1600F8CF10E0DDCEAC85BD850E9498070E9418
:100A2600DD0764960895FF92F82E26970E94D80750
:100A36000E941806309719F4EFEFFFEF25C0DE018C
:100A460016960E9463078D010E941806EE83FF83A7
:100A5600E0E0E887E987DE011A960E9463070E94B4
:100A66009807FA93EA931A930A93E3EAF3E0FA9360
:100A7600EA93FE013A96FA93EA93A0DE9F01AE81CD
:100A8600BF81E0E0EC93F9010E94DF072A96FF9010
:100A96000895B981A881EC91EA930E948505EE2319
:100AA60011F01196F8CFE894EC91ED3211F46894B8
:100AB60002C0EB3209F4119666277727EC91EA9388
:100AC6000E947D05EE2379F0FB01660F771F660F06
:100AD600771F6E0F7F1F660F771FED91FF27E0537D
:100AE6006E0F7F1FEBCFFB011EF4E095F09531965C
:100AF60022960895E1E0F991F03310F0FA3308F008
:100B0600EE270895E1E0F991F03229F0F93010F07E
:100B1600FE3008F0EE270895A991B991EE27FF2738
:100B26006D91662311F03196FBCF0895AA27BB2756
:100B3600E991F9910590002011F01196FBCFFD0186
:100B46000895AA81BB818C819D810E9473070895B7
:100B5600FE01E058FF4F0190119061917081F00104
:100B66000895DE01AE56BF4F0D90BC91A02D08959D
:100B76006A937A93AA93BA93EA93FA93EFB7EA93AE
:100B86000895A0E0B5E00E94A2070895319760405D
:100B960070400E94AC07EF5FFF4F6F4F7F4F089585
:100BA600EF5FFF4F6F4F7F4F0E94AC07319760405A
:100BB60070400895E6B5F7B5662777270E948B063D
:100BC600A6E6B6E686EE9EE30E94150708950E9405
:100BD60073070E94B50708952A93ED85FE85FA935B
:100BE600EA93E989FA8909950895E889F989349794
:100BF600E88BF98B0895ED85FE85FA93EA93E989EA
:100C0600FA8909950895A889B98914960E949807C2
:100C1600EE83FF83FA93EA930895A889B989149617
:100C26000E949807EA87FB870895DE011C960E94BA
:100C360063070E949807089530976040704009F056
:100C460070580895552342F4503811F4E0FF04C05B
:100C56003196691F791F6BF050E8572711F45F939F
:100C6600CFC05F3F31F0660F000C57956795752F23
:100C760008955F9300200AF0CFC0C8C050E8192E2F
:100C86001522880F991F9527550F879550E8072E2F
:100C96000522660F771F7527550F67950895689487
:100CA60001C0E8945F93F2DF703818F07F3F08F4D4
:100CB600A7C056E1571BAAF4519558300EF4593087
:100CC60030F0EFEFFFEF6FEF7FE777F91AC0772786
:100CD6005523B9F0EE0FFF1F661F771F5A95D1F700
:100CE60010C07727583028F0EF2FF62F672F58506F
:100CF600F9CF552331F076956795F795E7955A958F
:100D0600D1F700200AF4E4D05F910895689401C0F9
:100D1600E894309760407040B1F0002426F07723C5
:100D260012F40094D5D0172E7EE1112032F07A9578
:100D3600EE0FFF1F661F111CF9CFEF2FF62F612D47
:100D46005F938ADF5F9108954F93AF01FD01DA014A
:100D5600AB01BC01CA01402D012C142E4F91089500
:100D6600EA0FFB1F681F0895E095F0956095EF5F09
:100D7600FF4F6F4F08955F9381DF903871F150E810
:100D8600152604C05F937ADF903839F1703821F167
:100D9600572F591B2BF112F4D7DFFACF583118F021
:100DA600AA27BB278827583028F0AB2FB82F8827CB
:100DB6005850F9CF552329F08695B795A7955A959A
:100DC600D9F7502D512572F0CBDF38F46795F7959A
:100DD600E795739513F420C0B7DF3EDF5F91089562
:100DE600D8F7FBCFEA1BFB0B680B51F010F400940D
:100DF600BBDF662392F3EE0FFF1F661F7A95CBF7D4
:100E0600EE27FF27662777275F910895EFEFFFEF1D
:100E16006FE77FEF5F910895EFEFFFEF6FE77FE7F3
:100E26005F9108955F932ADF703851F3903841F34C
:100E360001240894791F23F41CF300203AF3ECCF25
:100E46000F921F932F933F934F9311272227992792
:100E5600689FA0018F9F302D410D591F6B9F300D4C
:100E6600411D591F8E9F27D0BF9F25D06A9F23D033
:100E7600BE9F1DD0AF9F1BD0AE9F110D291F391FDE
:100E8600491F591FE32FF42F652F522F4F913F9182
:100E96002F911F910F9066232AF0550FEE1FFF1F0B
:100EA600661F02C073954BF2CDDE5F910895100D5B
:100EB600211D391F02C0200D311D491F591F0895DC
:100EC6000024AF0DB01D0895F195E195F040089509
:100ED600F09560957095E195FF4F6F4F7F4F0895A0
:100EE6006F2F660F660B762F08958B2F880F880B52
:100EF600982F0895FA9FF02DEB9FF00DEA9FE02DB5
:100F0600F10D089504D0F6DF0EF4DEDF0895E894BF
:100F1600F7FF02C0D9DF6894B7FF06C0A095B09569
:100F2600119600F8039400FA0895ED91FC9111973B
:100F36000895ED91FD916D917C9113970895ED9132
:100F4600FD916D917D910895ED93FD936D937C9345
:100F560008957E936E93FE93EE9308950590F49113
:100F6600E02D08957A936A93FA93EA930895689424
:100F760001C0E89401D0CDDE182E862F612D192EE2
:100F8600972F712D1B2EBF2FF12D1A2EAE2FE12D6F
:100F96000895EA17FB07680779070895AE17BF0794
:100FA6008607970708955A934A933A932A931A9372
:100FB6000A9308955D814C813B812A8119810881BC
:100FC6000895AC0FBD1F05900D928A95E1F708951F
:00000001FF
