:0A0000000C9406010C9400000C940F
:10000A0000000C9400000C9400000C9400000C9466
:10001A0088020C949C020C94B0020C9400000C947C
:10002A0066020C9400000C9400000C9400000C94DE
:10003A0000000C9400000C9400000C9400000C9436
:10004A0000000C9400000C9400000C9400000C9426
:10005A0000000C9400000C9400000C9400000C9416
:10006A0000000C9400000C9400000C9400000C9406
:10007A006F020C9400000C9400000C9400000C9485
:10008A0000001027E80364000A00010000100001C4
:10009A00100001000A0047AA6F3B000000000000A0
:1000AA000000000000000000000000000000000046
:1000BA000000000000000000000000000000000036
:1000CA000000000000000000000000000000000026
:1000DA000000000000000000000000000000000016
:1000EA000000000000000000000000000000000006
:1000FA0000000000000000000000000000000000F6
:10010A0000000000000000000000000000000000E5
:10011A0000000000000000000000000000000000D5
:10012A0000000000000000000000000000000000C5
:10013A0000000000000000000000000000000000B5
:10014A0000000000000000000000000000000000A5
:10015A000000000000000000000000000000000095
:10016A000000000000000000000000000000000085
:10017A000000000000000000000000000000000075
:10018A000000000000000000000000000000000065
:10019A000000000000000000000000000000000055
:1001AA000000000000000000000000000000000045
:1001BA00000000000000000000000000476F616CB2
:1001CA003D25642C2063757272656E743D25642C1E
:1001DA00204572723D2564200D0A000001002D4E53
:1001EA00414E00494E460000010004059E000400ED
:1001FA001805A00006000400C00101001C05E60164
:10020A000000F894EE27ECBBF1E0F5BFE5BFE09300
:10021A006C00F8E1F1BDE1BD8DE0A2E0BB27ED93F2
:10022A008A95E9F780E090E1A0E0B1E0ED930197CB
:10023A00E9F7E2EFF1E085919591009761F0A591D8
:10024A00B59105901590BF01F00105900D920197A7
:10025A00E1F7FB01F0CF8BBFEFEFEDBFE0E1EEBFBF
:10026A00C0E0D5E00C94CC02BE9ABF9ABC9ABB9A65
:10027A00C498C398BA9ABD9AC298C5980895E0E0FE
:10028A00E0939B00E8E9E0939A00E6E0E0939D00A2
:10029A00ADE9B0E0EC91EC93E0E0E0939800E7E0A0
:1002AA00E09399000895E0919B00E072E1F3E88100
:1002BA00E0939C0021960895A881B981EC91E030E1
:1002CA0031F0ED91A883B983EA93EDDFF5CF229659
:1002DA000895E4E5EABFE0EEE9BF15981698179885
:1002EA000895E5E0E5BDEAE2EFBDE8E1EEBDEEB571
:1002FA00E160EEBDE0E0F0E0F9BDE8BDE093790031
:10030A00E0937800E0EBF4E0F7BDE6BDE0E4E7BF98
:10031A0008951A930A93EC81FD81AA81BB81AE17D5
:10032A00BF071CF00C811D811CC00E94880544F087
:10033A00EE81FF81AFEFBFEF0E9459078F0111C015
:10034A000E9488051CF4AB81AA230AF008C0EA813E
:10035A00FB81AFEFBFEF0E9459078F0102C00A81EC
:10036A001B81F8011981088128960895EF97EF9764
:10037A002E978CE8A0E0B0E0E4EAF0E00E94AE0735
:10038A001A930A9300E010E0FE01EE56FF4F019027
:10039A00119061917081F001DE01AA56BF4F0D9054
:1003AA00BC91A02D0E944C070E9490070E949307BF
:1003BA000E949206DE01AE57BF4FED93FD936D93F7
:1003CA007C930E948F05A0E0B0E080EA90E40E944E
:1003DA00E906DE01A657BF4FED93FD936D937C931B
:1003EA000E9498050E9470077F936F93FF93EF9383
:1003FA000E948F05ADECBCEC8CE49EE30E94E906FA
:10040A00A0911805B091190580911A0590911B05C4
:10041A000E94E906AF91BF918F919F910E94990620
:10042A000E9498050E947B07E0E0DE01AA57BF4FB1
:10043A00ED93ED93ED93EC930E9498050E9470075B
:10044A00DE01A657BF4F0D901D908D919C91D00152
:10045A000E949906DE01AA57BF4F0D901D908D91FB
:10046A009C91D0010E9499060E9428068F010E9441
:10047A008F05DE01A257BF4F0D90BC91A02D0E949F
:10048A007B07F80119810881EF96EF966A9608951D
:10049A00AB81AA231AF4C49AC39A05C0AB81AA23D2
:1004AA0072F0C498C398E881F981F9BDE8BDE0709B
:1004BA00EF2FF0E0E0937900E881E093780024964A
:1004CA000895EA93EFB7EA93EFEF9E0EE991EFBF33
:1004DA00E9911895EA93FA93EFB7EA9360909C0032
:1004EA00EAE0E61541F04424E52DF0E0EC5FFA4F2E
:1004FA006082539403C05524E1E04E2EE991EFBF88
:10050A00F991E99118950E949F05A0E00D99A1E043
:10051A00E0E00E99E1E0EA1729F00E94A8050E949E
:10052A00AD0504C00E94A8050E94B70527C00E9415
:10053A009F05A0E00E99A1E0E0E00F99E1E0EA173B
:10054A0029F00E94A8050E94AD0504C00E94A805D2
:10055A000E94B70513C00E949F05A0E00F99A1E071
:10056A00E0E00D99E1E0EA1729F00E94A8050E944F
:10057A00AD0504C00E94A8050E94B705E991EFBF26
:10058A00F991E991B991A991799169911895EF97A2
:10059A00EF97629780E9A0E0B0E0E0E3F1E00E9423
:1005AA00AE0700E010E020E030E040E050E067DE17
:1005BA0098DE5ADE8EDE7894442041F0E4E0F5E0DD
:1005CA00FA93EA930E9430059F01442400E010E068
:1005DA000431E0E01E074CF4A4E0B5E0A00FB11F1F
:1005EA00E0E0EC930F5F1F4FF3CFE0910005F0912D
:1005FA00010560910205709103050E945F06A0E063
:10060A00B0E080EF90E40E94E906DE01AC57BF4FEC
:10061A00ED93FD936D937C933A932A93FE01EA57E7
:10062A00FF4F0190119061917081F0010E9489073A
:10063A00FE01E257FF4FFA93EA93FE01EC56FF4F91
:10064A00FA93EA9393DEEA83FB83E8EAFDEFFA93EF
:10065A00EA93E8E5F2E0FA93EA930E94C10559DECB
:10066A00E883F983EA81FB81FA93EA93EA81FB81C1
:10067A00FA93EA930DDFE4B59E0EE0E0E4BDE92DBE
:10068A00F0E00E9447070E945F06A8E1B4EB80E908
:10069A0098E30E94E906E0931805F0931905609320
:1006AA001A0570931B05FE013496FA93EA93E6EC59
:1006BA00F1E0FA93EA93F9010E94C605FE01E457B4
:1006CA00FF4F0190119061917081F0010E942806FC
:1006DA000E94C605FE01E856FF4F019011906191F4
:1006EA007081F0010E9428060E94C6058CE00E94D3
:1006FA00FA046096FE013496FA93EA93DDDD9924B2
:10070A005BCFFFCF1A930A93AA81BB8112960E94EC
:10071A006C07309759F1AA81BB8114960E946C0725
:10072A008F01309761F00230E0E01E07F0F0F80127
:10073A0031978F01AA81BB811496ED93FC93AA810C
:10074A00BB811296ED91FD913196FE93EE9331970E
:10075A00AC81A083AA81BB810E946C07FF232AF087
:10076A00ED91FD913196FE93EE9306C0AA81BB816D
:10077A00EFEFFFEFED93FC93198108812596089519
:10078A0026970E94A00710E0AC85BD85E0E0F0E066
:10079A00ED93FC93EA89FB893196EA8BFB8B3197BF
:1007AA00E4912E2FE03011F40C94F204E12FE030A2
:1007BA0039F4253211F411E002C00E94CB050CC1B4
:1007CA00E130A9F4253219F40E94CB0504C112E0E4
:1007DA0040E000E02D3211F401E0FEC02B3211F4AA
:1007EA004BE2FAC0203211F440E2F6C002C0E23015
:1007FA0039F450E013E0203311F40068EDC004C06E
:10080A00E33011F00C94F104203310F02A3308F08D
:10081A0007C0AAE05A9F502DE22FE0535E0FDCC0BA
:10082A00E22FE33649F40E94D405E889F989A481C4
:10083A00AA930E94DA05CFC0E33741F40E94D40597
:10084A000E94E2050E9473051E2F0AC0E03761F478
:10085A000E94D4050E94E2050E947D051E2F0860B1
:10086A0002600F7730E035C0E43611F0E93611F452
:10087A00046002C0E53731F4ECE8F0E0EE83FF8370
:10088A0015E00DC0E83511F4086004C0E83711F02E
:10089A000C94F004E6E9F0E0EE83FF8314E002FF33
:1008AA0014C00E94D4050E94EA05AB85AA233AF433
:1008BA00EA85FB850E943B07EA87FB874DE24030C9
:1008CA0011F01F5F01C00B7F04C00E94D4050E9473
:1008DA00EA0500FD11C0151778F407FF08C002FFEA
:1008EA0004C00B7F242F115001C020E301C020E275
:1008FA000E94CB055150EFCF312F01FF17C0303086
:10090A00A1F003FF06C0EE81FF812591EE83FF83EC
:10091A0005C0AE81BF812D91AE83BF830E94CB05F6
:10092A00503009F051503150EACF4BC020E3EE81EC
:10093A00FF810E948507E887F987EE81FF81329659
:10094A00EE83FF83E885F985AA85BB85AE17BF07C5
:10095A0050F02F5FA885B985EA85FB85EA1BFB0B5A
:10096A00EA87FB87EFCF2A3328F003FF02C0295F0B
:10097A0001C0295D04FD1AC0213320F4A885B98578
:10098A00119709F409C0531710F000FF01C013C0F2
:10099A0020E207FF0BC020E3006102FF07C00B7FC4
:1009AA004A930E94DA05503009F051500E94CB0553
:1009BA00503009F051503150A885B985129708F086
:1009CA00B5CF00FF08C0503031F05150E0E2EA9351
:1009DA000E94DA05F8CF10E0DDCEAC85BD850E9415
:1009EA006C070E94A70764960895FF92F82E26972F
:1009FA000E94A2070E94F205309719F4EFEFFFEF69
:100A0A0025C0DE0116960E9437078D010E94F20565
:100A1A00EE83FF83E0E0E887E987DE011A960E9409
:100A2A0037070E946C07FA93EA931A930A93E7E846
:100A3A00F3E0FA93EA93FE013A96FA93EA93A0DE78
:100A4A009F01AE81BF81E0E0EC93F9010E94A90702
:100A5A002A96FF900895B981A881EC91EA930E94A1
:100A6A006905EE2311F01196F8CFE894EC91ED3276
:100A7A0011F4689402C0EB3209F4119666277727BD
:100A8A00EC91EA930E946105EE2379F0FB01660F6F
:100A9A00771F660F771F6E0F7F1F660F771FED9107
:100AAA00FF27E0536E0F7F1FEBCFFB011EF4E0958B
:100ABA00F095319622960895E1E0F991F03310F01D
:100ACA00FA3308F0EE270895E1E0F991F03229F0BF
:100ADA00F93010F0FE3008F0EE270895A991B99187
:100AEA00EE27FF276D91662311F03196FBCF08950B
:100AFA00AA27BB27E991F9910590002011F01196D8
:100B0A00FBCFFD010895EE81FF81AA81BB81EA171F
:100B1A00FB070895FE01EE57FF4F01901190619176
:100B2A007081F0010895DE01A057BF4F0D90BC916E
:100B3A00A02D08956A937A93AA93BA93EA93FA93A3
:100B4A00EFB7EA930895A0E0B5E00E94760708950A
:100B5A003197604070400E948007EF5FFF4F6F4FF0
:100B6A007F4F0895EF5FFF4F6F4F7F4F0E948007BF
:100B7A003197604070400895EE81FF81FA93EA93BD
:100B8A0008950E9447070E94890708952A93ED85D0
:100B9A00FE85FA93EA93E989FA8909950895E8891D
:100BAA00F9893497E88BF98B0895ED85FE85FA93D8
:100BBA00EA93E989FA8909950895A889B989149661
:100BCA000E946C07EE83FF83D7CFA889B989149650
:100BDA000E946C07EA87FB870895DE011C960E9433
:100BEA0037070E946C070895552342F4503811F4D0
:100BFA00E0FF04C03196691F791F6BF050E8572750
:100C0A0011F45F93CFC05F3F31F0660F000C579528
:100C1A006795752F08955F9300200AF0CFC0C8C06A
:100C2A0050E8192E1522880F991F9527550F879579
:100C3A0050E8072E0522660F771F7527550F67950F
:100C4A000895689401C0E8945F93F2DF703818F051
:100C5A007F3F08F4A7C056E1571BAAF451955830B4
:100C6A000EF4593030F0EFEFFFEF6FEF7FE777F9CF
:100C7A001AC077275523B9F0EE0FFF1F661F771F9B
:100C8A005A95D1F710C07727583028F0EF2FF62F52
:100C9A00672F5850F9CF552331F076956795F79518
:100CAA00E7955A95D1F700200AF4E4D05F910895A8
:100CBA00689401C0E894309760407040B1F0002415
:100CCA0026F0772312F40094D5D0172E7EE1112056
:100CDA0032F07A95EE0FFF1F661F111CF9CFEF2F26
:100CEA00F62F612D5F938ADF5F9108954F93AF01CD
:100CFA00FD01DA01AB01BC01CA01402D012C142E01
:100D0A004F910895EA0FFB1F681F0895E095F0952B
:100D1A006095EF5FFF4F6F4F08955F9381DF9038C3
:100D2A0071F150E8152604C05F937ADF903839F1E3
:100D3A00703821F1572F591B2BF112F4D7DFFACF54
:100D4A00583118F0AA27BB278827583028F0AB2F2C
:100D5A00B82F88275850F9CF552329F08695B7958B
:100D6A00A7955A95D9F7502D512572F0CBDF38F453
:100D7A006795F795E795739513F420C0B7DF3EDFC3
:100D8A005F910895D8F7FBCFEA1BFB0B680B51F074
:100D9A0010F40094BBDF662392F3EE0FFF1F661F69
:100DAA007A95CBF7EE27FF27662777275F91089575
:100DBA00EFEFFFEF6FE77FEF5F910895EFEFFFEF40
:100DCA006FE77FE75F9108955F932ADF703851F3E9
:100DDA00903841F301240894791F23F41CF300206E
:100DEA003AF3ECCF0F921F932F933F934F93112710
:100DFA0022279927689FA0018F9F302D410D591FE7
:100E0A006B9F300D411D591F8E9F27D0BF9F25D044
:100E1A006A9F23D0BE9F1DD0AF9F1BD0AE9F110DDE
:100E2A00291F391F491F591FE32FF42F652F522FEE
:100E3A004F913F912F911F910F9066232AF0550FE2
:100E4A00EE1FFF1F661F02C073954BF2CDDE5F9146
:100E5A000895100D211D391F02C0200D311D491F93
:100E6A00591F08950024AF0DB01D0895F195E1951D
:100E7A00F0400895F09560957095E195FF4F6F4F9A
:100E8A007F4F08956F2F660F660B762F08958B2F6D
:100E9A00880F880B982F0895FA9FF02DEB9FF00D7D
:100EAA00EA9FE02DF10D089504D0F6DF0EF4DEDF9F
:100EBA000895E894F7FF02C0D9DF6894B7FF06C027
:100ECA00A095B095119600F8039400FA0895ED9153
:100EDA00FC9111970895ED91FD916D917C91139775
:100EEA000895ED91FD916D917D910895ED93FD9396
:100EFA006D937C9308957E936E93FE93EE9308957B
:100F0A000590F491E02D08957A936A93FA93EA93FF
:100F1A000895689401C0E89401D0CDDE182E862F7A
:100F2A00612D192E972F712D1B2EBF2FF12D1A2EE1
:100F3A00AE2FE12D08955A934A933A932A931A931E
:100F4A000A9308955D814C813B812A811981088128
:100F5A000895AC0FBD1F05900D928A95E1F708958B
:00000001FF
