:080000000C9405010C940000B2
:100008000C9400000C9400000C9400000C94000068
:100018000C94C0010C94D4010C94E8010C940000D9
:100028000C949E010C9400000C9400000C940000A9
:100038000C9400000C9400000C9400000C94000038
:100048000C9400000C9400000C9400000C94000028
:100058000C9400000C9400000C9400000C94000018
:100068000C9400000C9400000C9400000C94000008
:100078000C94A7010C9400000C9400000C94000050
:100088000C9400001027E80364000A000100001027
:100098000001100001000A0047AA6F3B00000000A1
:1000A8000000000000000000000000000000000048
:1000B8000000000000000000000000000000000038
:1000C8000000000000000000000000000000000028
:1000D8000000000000000000000000000000000018
:1000E8000000000000000000000000000000000008
:1000F80000000000000000000000000000000000F8
:1001080000000000000000000000000000000000E7
:1001180000000000000000000000000000000000D7
:1001280000000000000000000000000000000000C7
:1001380000000000000000000000000000000000B7
:1001480000000000000000000000000000000000A7
:100158000000000000000000000000000000000097
:100168000000000000000000000000000000000087
:100178000000000000000000000000000000000077
:100188000000000000000000000000000000000067
:100198000000000000000000000000000000000057
:1001A8000000000000000000000000000000000047
:1001B8000000000000000000000000000000000037
:1001C80000000000476F616C3D25642C25642C25D8
:1001D800642C25642C2564200D0A000001002D4E96
:1001E800414E00494E460000010004059E000400EF
:1001F8001805A00006000600C60101001C05E40160
:100208000000F894EE27ECBBF1E0F5BFE5BFE09302
:100218006C00F8E1F1BDE1BD8DE0A2E0BB27ED93F4
:100228008A95E9F780E090E1A0E0B1E0ED930197CD
:10023800E9F7E0EFF1E085919591009761F0A591DC
:10024800B59105901590BF01F00105900D920197A9
:10025800E1F7FB01F0CF8BBFEFEFEDBFE0E1EEBFC1
:10026800C0E0D5E00C940402BE9ABF9ABC9ABB9A2F
:10027800C498C398BA9ABD9AC298C5980895E0E000
:10028800E0939B00E8E9E0939A00E6E0E0939D00A4
:10029800ADE9B0E0EC91EC93E0E0E0939800E7E0A2
:1002A800E09399000895E0919B00E072E1F3E88102
:1002B800E0939C0021960895A881B981EC91E030E3
:1002C80031F0ED91A883B983EA93EDDFF5CF22965B
:1002D8000895E5E0E5BDEAE2EFBDE8E1EEBDEEB583
:1002E800E160EEBDE0E0F0E0F9BDE8BDE093790043
:1002F800E0937800E0EBF4E0F7BDE6BDE0E4E7BFAB
:100308000895AD81AA231AF4C49AC39A05C0AD8191
:10031800AA2372F0C498C398E881F981F9BDE8BDB1
:10032800E070EF2FF0E0E0937900E881E093780047
:1003380026960895EA93EFB7EA93EFEFBE0EE99198
:10034800EFBFE9911895EA93FA93EFB7EA93809093
:100358009C00EAE0E81541F06624E72DF0E0EC5F48
:10036800FA4F8082739403C07724E1E06E2EE991FE
:10037800EFBFF991E99118950E94C004A0E00D998A
:10038800A1E0E0E00E99E1E0EA1729F00E94C90433
:100398000E94CE0404C00E94C9040E94D80427C049
:1003A8000E94C004A0E00E99A1E0E0E00F99E1E00E
:1003B800EA1729F00E94C9040E94CE0404C00E94D2
:1003C800C9040E94D80413C00E94C004A0E00F9979
:1003D800A1E0E0E00D99E1E0EA1729F00E94C904E4
:1003E8000E94CE0404C00E94C9040E94D804E99166
:1003F800EFBFF991E991B991A9917991699118950E
:10040800EF97EF97649782E9A0E0B0E0E4E3F1E0CA
:100418000E944D0600E010E020E030E040E050E0AF
:100428000E94E204DE0112960E9453050E942C06E7
:100438000E94E204DE010E945105ED93FC931FDF48
:1004480048DF12DF7894662041F0E4E0F5E0FA93A3
:10045800EA930E9468049F01662400E010E00431DA
:10046800E0E01E074CF4A4E0B5E0A00FB11FE0E007
:10047800EC930F5F1F4FF3CFE0910005F09101055A
:1004880060910205709103050E948A05A0E0B0E022
:1004980080EF90E40E94B805DE01AA57BF4FED93A4
:1004A800FD936D937C93EA81FB816C817D810E9431
:1004B8003A06EC81FD81FA93EA9323DFE4B5BE0E98
:1004C800E0E0E4BDEB2DF0E00E9416060E948A05EC
:1004D800A8E1B4EB80E998E30E94B805E093180519
:1004E800F093190560931A0570931B05FE01369663
:1004F800FA93EA93ECECF1E0FA93EA93F9010E949B
:10050800EF04FE01E257FF4F019011906191708155
:10051800F0010E9453050E94EF04FE01E656FF4FCA
:100528000190119061917081F0010E9453050E9421
:10053800EF04EA89FB896C897D890E943A06C49B8D
:1005480002C0EFEF01C0E1E0F0E0E7FDFFEFAC89AA
:10055800BD890E941B06662777270E943A0684E118
:100568000E9432046896FE013696FA93EA93A4DE56
:10057800BB2469CFFFCF1A930A93AA81BB81129635
:100588000E942306309759F1AA81BB8114960E94D4
:1005980023068F01309761F00230E0E01E07F0F08B
:1005A800F80131978F01AA81BB811496ED93FC93D2
:1005B800AA81BB811296ED91FD913196FE93EE933F
:1005C8003197AC81A083AA81BB810E942306FF23B7
:1005D8002AF0ED91FD913196FE93EE9306C0AA8123
:1005E800BB81EFEFFFEFED93FC931981088125960E
:1005F800089526970E943F0610E0AC85BD85E0E08F
:10060800F0E0ED93FC93EA89FB893196EA8BFB8B4A
:100618003197E4912E2FE03011F40C942A04E12F45
:10062800E03039F4253211F411E002C00E94F404DC
:100638000CC1E130A9F4253219F40E94F40404C174
:1006480012E040E000E02D3211F401E0FEC02B3250
:1006580011F44BE2FAC0203211F440E2F6C002C0B5
:10066800E23039F450E013E0203311F40068EDC0B3
:1006780004C0E33011F00C942904203310F02A331D
:1006880008F007C0AAE05A9F502DE22FE0535E0FF2
:10069800DCC0E22FE33649F40E94FD04E889F989B9
:1006A800A481AA930E940305CFC0E33741F40E94B6
:1006B800FD040E940B050E94AB041E2F0AC0E03700
:1006C80061F40E94FD040E940B050E94B5041E2FD0
:1006D800086002600F7730E035C0E43611F0E93683
:1006E80011F4046002C0E53731F4ECE8F0E0EE8381
:1006F800FF8315E00DC0E83511F4086004C0E83741
:1007080011F00C942804E6E9F0E0EE83FF8314E08E
:1007180002FF14C00E94FD040E941505AB85AA23A0
:100728003AF4EA85FB850E940A06EA87FB874DE2D0
:10073800403011F01F5F01C00B7F04C00E94FD0410
:100748000E94150500FD11C0151778F407FF08C0B1
:1007580002FF04C00B7F242F115001C020E301C009
:1007680020E20E94F4045150EFCF312F01FF17C04F
:100778003030A1F003FF06C0EE81FF812591EE83A2
:10078800FF8305C0AE81BF812D91AE83BF830E94D8
:10079800F404503009F051503150EACF4BC020E3F7
:1007A800EE81FF810E943606E887F987EE81FF8196
:1007B8003296EE83FF83E885F985AA85BB85AE1757
:1007C800BF0750F02F5FA885B985EA85FB85EA1B2E
:1007D800FB0BEA87FB87EFCF2A3328F003FF02C021
:1007E800295F01C0295D04FD1AC0213320F4A885C2
:1007F800B985119709F409C0531710F000FF01C01B
:1008080013C020E207FF0BC020E3006102FF07C00E
:100818000B7F4A930E940305503009F051500E9403
:10082800F404503009F051503150A885B985129719
:1008380008F0B5CF00FF08C0503031F05150E0E269
:10084800EA930E940305F8CF10E0DDCEAC85BD85A4
:100858000E9423060E94460664960895FF92F82E89
:1008680026970E9441060E941D05309719F4EFEF64
:10087800FFEF25C0DE0116960E9406068D010E9434
:100888001D05EE83FF83E0E0E887E987DE011A961D
:100898000E9406060E942306FA93EA931A930A9383
:1008A800EFEBF2E0FA93EA93FE013A96FA93EA93B1
:1008B800A0DE9F01AE81BF81E0E0EC93F9010E94C8
:1008C80048062A96FF900895B981A881EC91EA9389
:1008D8000E94A104EE2311F01196F8CFE894EC9150
:1008E800ED3211F4689402C0EB3209F411966627D0
:1008F8007727EC91EA930E949904EE2379F0FB01A3
:10090800660F771F660F771F6E0F7F1F660F771FA3
:10091800ED91FF27E0536E0F7F1FEBCFFB011EF415
:10092800E095F095319622960895E1E0F991F0333B
:1009380010F0FA3308F0EE270895E1E0F991F0326B
:1009480029F0F93010F0FE3008F0EE270895A9914B
:10095800B991EE27FF276D91662311F03196FBCFF1
:100968000895AA27BB27E991F9910590002011F075
:100978001196FBCFFD0108956A937A93AA93BA93CF
:10098800EA93FA93EFB7EA930895A0E0B5E00E94DE
:10099800270608953197604070400E943106EF5F46
:1009A800FF4F6F4F7F4F0895EF5FFF4F6F4F7F4FA0
:1009B8000E9431063197604070400895E6B5F7B55A
:1009C800662777270E948A05A6E6B6E686EE9EE3A6
:1009D8000E94B80508950E9416060E943A060895D6
:1009E8002A93ED85FE85FA93EA93E989FA890995B0
:1009F8000895E889F9893497E88BF98B0895ED858E
:100A0800FE85FA93EA93E989FA8909950895A889F0
:100A1800B98914960E942306EE83FF83FA93EA931A
:100A28000895A889B98914960E942306EA87FB8746
:100A38000895DE011C960E9406060E94230608956A
:100A4800552342F4503811F4E0FF04C03196691F71
:100A5800791F6BF050E8572711F45F9373C05F3F1D
:100A680031F0660F000C57956795752F08955F93C1
:100A780000200AF073C06CC050E8192E1522880FA8
:100A8800991F9527550F879550E8072E0522660F61
:100A9800771F7527550F67950895689401C0E894E6
:100AA8005F93F2DF703818F07F3F08F44BC056E1CF
:100AB800571BAAF4519558300EF4593030F0EFEF27
:100AC800FFEF6FEF7FE777F91AC077275523B9F063
:100AD800EE0FFF1F661F771F5A95D1F710C07727B3
:100AE800583028F0EF2FF62F672F5850F9CF55239D
:100AF80031F076956795F795E7955A95D1F70020E7
:100B08000AF488D05F910895689401C0E8943097FA
:100B180060407040B1F0002426F0772312F400946E
:100B280079D0172E7EE1112032F07A95EE0FFF1F53
:100B3800661F111CF9CFEF2FF62F612D5F938ADF07
:100B48005F910895EE27FF27662777275F9108951D
:100B5800EFEFFFEF6FE77FEF5F910895EFEFFFEFA4
:100B68006FE77FE75F9108955F9386DF703851F3F1
:100B7800903841F301240894791F23F41CF30020D2
:100B88003AF3ECCF0F921F932F933F934F93112774
:100B980022279927689FA0018F9F302D410D591F4B
:100BA8006B9F300D411D591F8E9F27D0BF9F25D0A9
:100BB8006A9F23D0BE9F1DD0AF9F1BD0AE9F110D43
:100BC800291F391F491F591FE32FF42F652F522F53
:100BD8004F913F912F911F910F9066232AF0550F47
:100BE800EE1FFF1F661F02C073954BF229DF5F914E
:100BF8000895100D211D391F02C0200D311D491FF8
:100C0800591F08950024AF0DB01D0895F195E19581
:100C1800F0400895F09560957095E195FF4F6F4FFE
:100C28007F4F08956F2F660F660B762F0895FA9FF2
:100C3800F02DEB9FF00DEA9FE02DF10D0895ED9159
:100C4800FC9111970895ED91FD916D917D91089515
:100C5800ED93FD936D937C9308957E936E93FE932D
:100C6800EE9308950590F491E02D08957A936A9390
:100C7800FA93EA9308955A934A933A932A931A93C4
:100C88000A9308955D814C813B812A8119810881ED
:100C98000895AC0FBD1F05900D928A95E1F7089550
:00000001FF
